{
	"contracts/Tree.sol": {
		"Tree": {
			"abi": [
				{
					"inputs": [],
					"stateMutability": "nonpayable",
					"type": "constructor"
				},
				{
					"inputs": [
						{
							"internalType": "uint256",
							"name": "",
							"type": "uint256"
						}
					],
					"name": "hashes",
					"outputs": [
						{
							"internalType": "bytes32",
							"name": "",
							"type": "bytes32"
						}
					],
					"stateMutability": "view",
					"type": "function"
				},
				{
					"inputs": [
						{
							"internalType": "string",
							"name": "input",
							"type": "string"
						}
					],
					"name": "makeHash",
					"outputs": [
						{
							"internalType": "bytes32",
							"name": "",
							"type": "bytes32"
						}
					],
					"stateMutability": "pure",
					"type": "function"
				},
				{
					"inputs": [
						{
							"internalType": "uint256",
							"name": "",
							"type": "uint256"
						}
					],
					"name": "transactions",
					"outputs": [
						{
							"internalType": "string",
							"name": "",
							"type": "string"
						}
					],
					"stateMutability": "view",
					"type": "function"
				},
				{
					"inputs": [
						{
							"internalType": "string",
							"name": "transaction",
							"type": "string"
						},
						{
							"internalType": "uint256",
							"name": "index",
							"type": "uint256"
						},
						{
							"internalType": "bytes32",
							"name": "root",
							"type": "bytes32"
						},
						{
							"internalType": "bytes32[]",
							"name": "proof",
							"type": "bytes32[]"
						}
					],
					"name": "verify",
					"outputs": [
						{
							"internalType": "bool",
							"name": "",
							"type": "bool"
						}
					],
					"stateMutability": "pure",
					"type": "function"
				}
			],
			"devdoc": {
				"kind": "dev",
				"methods": {},
				"version": 1
			},
			"evm": {
				"assembly": "    /* \"contracts/Tree.sol\":59:1808  contract Tree {... */\n  mstore(0x40, 0x80)\n    /* \"contracts/Tree.sol\":130:293  string[4] public transactions = [... */\n  mload(0x40)\n  dup1\n  0x80\n  add\n  0x40\n  mstore\n  dup1\n  mload(0x40)\n  dup1\n  0x40\n  add\n  0x40\n  mstore\n  dup1\n  0x14\n  dup2\n  mstore\n  0x20\n  add\n  0x5458313a20536865726c6f6b202d3e204a6f686e000000000000000000000000\n  dup2\n  mstore\n  pop\n  dup2\n  mstore\n  0x20\n  add\n  mload(0x40)\n  dup1\n  0x40\n  add\n  0x40\n  mstore\n  dup1\n  0x14\n  dup2\n  mstore\n  0x20\n  add\n  0x5458323a204a6f686e202d3e20536865726c6f6b000000000000000000000000\n  dup2\n  mstore\n  pop\n  dup2\n  mstore\n  0x20\n  add\n  mload(0x40)\n  dup1\n  0x40\n  add\n  0x40\n  mstore\n  dup1\n  0x11\n  dup2\n  mstore\n  0x20\n  add\n  0x5458333a204a6f686e202d3e204d617279000000000000000000000000000000\n  dup2\n  mstore\n  pop\n  dup2\n  mstore\n  0x20\n  add\n  mload(0x40)\n  dup1\n  0x40\n  add\n  0x40\n  mstore\n  dup1\n  0x14\n  dup2\n  mstore\n  0x20\n  add\n  0x5458343a204d617279202d3e20536865726c6f6b000000000000000000000000\n  dup2\n  mstore\n  pop\n  dup2\n  mstore\n  pop\n  0x01\n  swap1\n  0x04\n  tag_1\n  swap3\n  swap2\n  swap1\n  tag_2\n  jump\t// in\ntag_1:\n  pop\n    /* \"contracts/Tree.sol\":300:1002  constructor() {... */\n  callvalue\n  dup1\n  iszero\n  tag_3\n  jumpi\n  0x00\n  dup1\n  revert\ntag_3:\n  pop\n    /* \"contracts/Tree.sol\":329:335  uint i */\n  0x00\n    /* \"contracts/Tree.sol\":324:521  for (uint i = 0; i < transactions.length; i++) {... */\ntag_6:\n    /* \"contracts/Tree.sol\":345:364  transactions.length */\n  0x04\n    /* \"contracts/Tree.sol\":341:342  i */\n  dup2\n    /* \"contracts/Tree.sol\":341:364  i < transactions.length */\n  lt\n    /* \"contracts/Tree.sol\":324:521  for (uint i = 0; i < transactions.length; i++) {... */\n  iszero\n  tag_7\n  jumpi\n    /* \"contracts/Tree.sol\":385:391  hashes */\n  0x00\n    /* \"contracts/Tree.sol\":462:474  transactions */\n  0x01\n    /* \"contracts/Tree.sol\":475:476  i */\n  dup3\n    /* \"contracts/Tree.sol\":462:477  transactions[i] */\n  0x04\n  dup2\n  lt\n  tag_9\n  jumpi\n  tag_10\n  tag_11\n  jump\t// in\ntag_10:\ntag_9:\n  add\n    /* \"contracts/Tree.sol\":445:478  abi.encodePacked(transactions[i]) */\n  add(0x20, mload(0x40))\n  tag_13\n  swap2\n  swap1\n  tag_14\n  jump\t// in\ntag_13:\n  mload(0x40)\n  0x20\n  dup2\n  dup4\n  sub\n  sub\n  dup2\n  mstore\n  swap1\n  0x40\n  mstore\n    /* \"contracts/Tree.sol\":414:496  keccak256(... */\n  dup1\n  mload\n  swap1\n  0x20\n  add\n  keccak256\n    /* \"contracts/Tree.sol\":385:510  hashes.push(... */\n  swap1\n  dup1\n  0x01\n  dup2\n  sload\n  add\n  dup1\n  dup3\n  sstore\n  dup1\n  swap2\n  pop\n  pop\n  0x01\n  swap1\n  sub\n  swap1\n  0x00\n  mstore\n  keccak256(0x00, 0x20)\n  add\n  0x00\n  swap1\n  swap2\n  swap1\n  swap2\n  swap1\n  swap2\n  pop\n  sstore\n    /* \"contracts/Tree.sol\":366:369  i++ */\n  dup1\n  dup1\n  tag_16\n  swap1\n  tag_17\n  jump\t// in\ntag_16:\n  swap2\n  pop\n  pop\n    /* \"contracts/Tree.sol\":324:521  for (uint i = 0; i < transactions.length; i++) {... */\n  jump(tag_6)\ntag_7:\n  pop\n    /* \"contracts/Tree.sol\":531:541  uint count */\n  0x00\n    /* \"contracts/Tree.sol\":544:563  transactions.length */\n  0x04\n    /* \"contracts/Tree.sol\":531:563  uint count = transactions.length */\n  swap1\n  pop\n    /* \"contracts/Tree.sol\":573:584  uint offset */\n  0x00\n    /* \"contracts/Tree.sol\":599:995  while(count > 0) {... */\ntag_18:\n    /* \"contracts/Tree.sol\":613:614  0 */\n  0x00\n    /* \"contracts/Tree.sol\":605:610  count */\n  dup3\n    /* \"contracts/Tree.sol\":605:614  count > 0 */\n  gt\n    /* \"contracts/Tree.sol\":599:995  while(count > 0) {... */\n  iszero\n  tag_19\n  jumpi\n    /* \"contracts/Tree.sol\":635:641  uint i */\n  0x00\n    /* \"contracts/Tree.sol\":630:925  for (uint i = 0; i < count - 1; i += 2) {... */\ntag_20:\n    /* \"contracts/Tree.sol\":659:660  1 */\n  0x01\n    /* \"contracts/Tree.sol\":651:656  count */\n  dup4\n    /* \"contracts/Tree.sol\":651:660  count - 1 */\n  tag_23\n  swap2\n  swap1\n  tag_24\n  jump\t// in\ntag_23:\n    /* \"contracts/Tree.sol\":647:648  i */\n  dup2\n    /* \"contracts/Tree.sol\":647:660  i < count - 1 */\n  lt\n    /* \"contracts/Tree.sol\":630:925  for (uint i = 0; i < count - 1; i += 2) {... */\n  iszero\n  tag_21\n  jumpi\n    /* \"contracts/Tree.sol\":688:694  hashes */\n  0x00\n    /* \"contracts/Tree.sol\":802:808  hashes */\n  dup1\n    /* \"contracts/Tree.sol\":818:819  i */\n  dup3\n    /* \"contracts/Tree.sol\":809:815  offset */\n  dup5\n    /* \"contracts/Tree.sol\":809:819  offset + i */\n  tag_25\n  swap2\n  swap1\n  tag_26\n  jump\t// in\ntag_25:\n    /* \"contracts/Tree.sol\":802:820  hashes[offset + i] */\n  dup2\n  sload\n  dup2\n  lt\n  tag_27\n  jumpi\n  tag_28\n  tag_11\n  jump\t// in\ntag_28:\ntag_27:\n  swap1\n  0x00\n  mstore\n  keccak256(0x00, 0x20)\n  add\n  sload\n    /* \"contracts/Tree.sol\":822:828  hashes */\n  0x00\n    /* \"contracts/Tree.sol\":842:843  1 */\n  0x01\n    /* \"contracts/Tree.sol\":838:839  i */\n  dup5\n    /* \"contracts/Tree.sol\":829:835  offset */\n  dup7\n    /* \"contracts/Tree.sol\":829:839  offset + i */\n  tag_30\n  swap2\n  swap1\n  tag_26\n  jump\t// in\ntag_30:\n    /* \"contracts/Tree.sol\":829:843  offset + i + 1 */\n  tag_31\n  swap2\n  swap1\n  tag_26\n  jump\t// in\ntag_31:\n    /* \"contracts/Tree.sol\":822:844  hashes[offset + i + 1] */\n  dup2\n  sload\n  dup2\n  lt\n  tag_32\n  jumpi\n  tag_33\n  tag_11\n  jump\t// in\ntag_33:\ntag_32:\n  swap1\n  0x00\n  mstore\n  keccak256(0x00, 0x20)\n  add\n  sload\n    /* \"contracts/Tree.sol\":756:870  abi.encodePacked(... */\n  add(0x20, mload(0x40))\n  tag_35\n  swap3\n  swap2\n  swap1\n  tag_36\n  jump\t// in\ntag_35:\n  mload(0x40)\n  0x20\n  dup2\n  dup4\n  sub\n  sub\n  dup2\n  mstore\n  swap1\n  0x40\n  mstore\n    /* \"contracts/Tree.sol\":721:892  keccak256(... */\n  dup1\n  mload\n  swap1\n  0x20\n  add\n  keccak256\n    /* \"contracts/Tree.sol\":688:910  hashes.push(... */\n  swap1\n  dup1\n  0x01\n  dup2\n  sload\n  add\n  dup1\n  dup3\n  sstore\n  dup1\n  swap2\n  pop\n  pop\n  0x01\n  swap1\n  sub\n  swap1\n  0x00\n  mstore\n  keccak256(0x00, 0x20)\n  add\n  0x00\n  swap1\n  swap2\n  swap1\n  swap2\n  swap1\n  swap2\n  pop\n  sstore\n    /* \"contracts/Tree.sol\":667:668  2 */\n  0x02\n    /* \"contracts/Tree.sol\":662:668  i += 2 */\n  dup2\n  tag_38\n  swap2\n  swap1\n  tag_26\n  jump\t// in\ntag_38:\n  swap1\n  pop\n    /* \"contracts/Tree.sol\":630:925  for (uint i = 0; i < count - 1; i += 2) {... */\n  jump(tag_20)\ntag_21:\n  pop\n    /* \"contracts/Tree.sol\":948:953  count */\n  dup2\n    /* \"contracts/Tree.sol\":938:953  offset += count */\n  dup2\n  tag_39\n  swap2\n  swap1\n  tag_26\n  jump\t// in\ntag_39:\n  swap1\n  pop\n    /* \"contracts/Tree.sol\":983:984  2 */\n  0x02\n    /* \"contracts/Tree.sol\":975:980  count */\n  dup3\n    /* \"contracts/Tree.sol\":975:984  count / 2 */\n  tag_40\n  swap2\n  swap1\n  tag_41\n  jump\t// in\ntag_40:\n    /* \"contracts/Tree.sol\":967:984  count = count / 2 */\n  swap2\n  pop\n    /* \"contracts/Tree.sol\":599:995  while(count > 0) {... */\n  jump(tag_18)\ntag_19:\n    /* \"contracts/Tree.sol\":314:1002  {... */\n  pop\n  pop\n    /* \"contracts/Tree.sol\":59:1808  contract Tree {... */\n  jump(tag_42)\ntag_2:\n  dup3\n  0x04\n  dup2\n  add\n  swap3\n  dup3\n  iszero\n  tag_43\n  jumpi\n  swap2\n  0x20\n  mul\n  dup3\n  add\ntag_44:\n  dup3\n  dup2\n  gt\n  iszero\n  tag_45\n  jumpi\n  dup3\n  mload\n  dup3\n  swap1\n  dup2\n  tag_46\n  swap2\n  swap1\n  tag_47\n  jump\t// in\ntag_46:\n  pop\n  swap2\n  0x20\n  add\n  swap2\n  swap1\n  0x01\n  add\n  swap1\n  jump(tag_44)\ntag_45:\ntag_43:\n  pop\n  swap1\n  pop\n  tag_48\n  swap2\n  swap1\n  tag_49\n  jump\t// in\ntag_48:\n  pop\n  swap1\n  jump\t// out\ntag_49:\ntag_50:\n  dup1\n  dup3\n  gt\n  iszero\n  tag_51\n  jumpi\n  0x00\n  dup2\n  dup2\n  tag_52\n  swap2\n  swap1\n  tag_53\n  jump\t// in\ntag_52:\n  pop\n  0x01\n  add\n  jump(tag_50)\ntag_51:\n  pop\n  swap1\n  jump\t// out\ntag_53:\n  pop\n  dup1\n  sload\n  tag_54\n  swap1\n  tag_55\n  jump\t// in\ntag_54:\n  0x00\n  dup3\n  sstore\n  dup1\n  0x1f\n  lt\n  tag_57\n  jumpi\n  pop\n  jump(tag_56)\ntag_57:\n  0x1f\n  add\n  0x20\n  swap1\n  div\n  swap1\n  0x00\n  mstore\n  keccak256(0x00, 0x20)\n  swap1\n  dup2\n  add\n  swap1\n  tag_58\n  swap2\n  swap1\n  tag_59\n  jump\t// in\ntag_58:\ntag_56:\n  pop\n  jump\t// out\ntag_59:\ntag_60:\n  dup1\n  dup3\n  gt\n  iszero\n  tag_61\n  jumpi\n  0x00\n  dup2\n  0x00\n  swap1\n  sstore\n  pop\n  0x01\n  add\n  jump(tag_60)\ntag_61:\n  pop\n  swap1\n  jump\t// out\n    /* \"#utility.yul\":7:187   */\ntag_11:\n    /* \"#utility.yul\":55:132   */\n  0x4e487b7100000000000000000000000000000000000000000000000000000000\n    /* \"#utility.yul\":52:53   */\n  0x00\n    /* \"#utility.yul\":45:133   */\n  mstore\n    /* \"#utility.yul\":152:156   */\n  0x32\n    /* \"#utility.yul\":149:150   */\n  0x04\n    /* \"#utility.yul\":142:157   */\n  mstore\n    /* \"#utility.yul\":176:180   */\n  0x24\n    /* \"#utility.yul\":173:174   */\n  0x00\n    /* \"#utility.yul\":166:181   */\n  revert\n    /* \"#utility.yul\":193:373   */\ntag_62:\n    /* \"#utility.yul\":241:318   */\n  0x4e487b7100000000000000000000000000000000000000000000000000000000\n    /* \"#utility.yul\":238:239   */\n  0x00\n    /* \"#utility.yul\":231:319   */\n  mstore\n    /* \"#utility.yul\":338:342   */\n  0x22\n    /* \"#utility.yul\":335:336   */\n  0x04\n    /* \"#utility.yul\":328:343   */\n  mstore\n    /* \"#utility.yul\":362:366   */\n  0x24\n    /* \"#utility.yul\":359:360   */\n  0x00\n    /* \"#utility.yul\":352:367   */\n  revert\n    /* \"#utility.yul\":379:699   */\ntag_55:\n    /* \"#utility.yul\":423:429   */\n  0x00\n    /* \"#utility.yul\":460:461   */\n  0x02\n    /* \"#utility.yul\":454:458   */\n  dup3\n    /* \"#utility.yul\":450:462   */\n  div\n    /* \"#utility.yul\":440:462   */\n  swap1\n  pop\n    /* \"#utility.yul\":507:508   */\n  0x01\n    /* \"#utility.yul\":501:505   */\n  dup3\n    /* \"#utility.yul\":497:509   */\n  and\n    /* \"#utility.yul\":528:546   */\n  dup1\n    /* \"#utility.yul\":518:599   */\n  tag_92\n  jumpi\n    /* \"#utility.yul\":584:588   */\n  0x7f\n    /* \"#utility.yul\":576:582   */\n  dup3\n    /* \"#utility.yul\":572:589   */\n  and\n    /* \"#utility.yul\":562:589   */\n  swap2\n  pop\n    /* \"#utility.yul\":518:599   */\ntag_92:\n    /* \"#utility.yul\":646:648   */\n  0x20\n    /* \"#utility.yul\":638:644   */\n  dup3\n    /* \"#utility.yul\":635:649   */\n  lt\n    /* \"#utility.yul\":615:633   */\n  dup2\n    /* \"#utility.yul\":612:650   */\n  sub\n    /* \"#utility.yul\":609:693   */\n  tag_93\n  jumpi\n    /* \"#utility.yul\":665:683   */\n  tag_94\n  tag_62\n  jump\t// in\ntag_94:\n    /* \"#utility.yul\":609:693   */\ntag_93:\n    /* \"#utility.yul\":430:699   */\n  pop\n    /* \"#utility.yul\":379:699   */\n  swap2\n  swap1\n  pop\n  jump\t// out\n    /* \"#utility.yul\":705:853   */\ntag_63:\n    /* \"#utility.yul\":807:818   */\n  0x00\n    /* \"#utility.yul\":844:847   */\n  dup2\n    /* \"#utility.yul\":829:847   */\n  swap1\n  pop\n    /* \"#utility.yul\":705:853   */\n  swap3\n  swap2\n  pop\n  pop\n  jump\t// out\n    /* \"#utility.yul\":859:1000   */\ntag_64:\n    /* \"#utility.yul\":908:912   */\n  0x00\n    /* \"#utility.yul\":931:934   */\n  dup2\n    /* \"#utility.yul\":923:934   */\n  swap1\n  pop\n    /* \"#utility.yul\":954:957   */\n  dup2\n    /* \"#utility.yul\":951:952   */\n  0x00\n    /* \"#utility.yul\":944:958   */\n  mstore\n    /* \"#utility.yul\":988:992   */\n  0x20\n    /* \"#utility.yul\":985:986   */\n  0x00\n    /* \"#utility.yul\":975:993   */\n  keccak256\n    /* \"#utility.yul\":967:993   */\n  swap1\n  pop\n    /* \"#utility.yul\":859:1000   */\n  swap2\n  swap1\n  pop\n  jump\t// out\n    /* \"#utility.yul\":1030:1904   */\ntag_65:\n    /* \"#utility.yul\":1133:1136   */\n  0x00\n    /* \"#utility.yul\":1170:1175   */\n  dup2\n    /* \"#utility.yul\":1164:1176   */\n  sload\n    /* \"#utility.yul\":1199:1235   */\n  tag_98\n    /* \"#utility.yul\":1225:1234   */\n  dup2\n    /* \"#utility.yul\":1199:1235   */\n  tag_55\n  jump\t// in\ntag_98:\n    /* \"#utility.yul\":1251:1340   */\n  tag_99\n    /* \"#utility.yul\":1333:1339   */\n  dup2\n    /* \"#utility.yul\":1328:1331   */\n  dup7\n    /* \"#utility.yul\":1251:1340   */\n  tag_63\n  jump\t// in\ntag_99:\n    /* \"#utility.yul\":1244:1340   */\n  swap5\n  pop\n    /* \"#utility.yul\":1371:1372   */\n  0x01\n    /* \"#utility.yul\":1360:1369   */\n  dup3\n    /* \"#utility.yul\":1356:1373   */\n  and\n    /* \"#utility.yul\":1387:1388   */\n  0x00\n    /* \"#utility.yul\":1382:1548   */\n  dup2\n  eq\n  tag_101\n  jumpi\n    /* \"#utility.yul\":1562:1563   */\n  0x01\n    /* \"#utility.yul\":1557:1898   */\n  dup2\n  eq\n  tag_102\n  jumpi\n    /* \"#utility.yul\":1349:1898   */\n  jump(tag_100)\n    /* \"#utility.yul\":1382:1548   */\ntag_101:\n    /* \"#utility.yul\":1466:1470   */\n  0xff\n    /* \"#utility.yul\":1462:1471   */\n  not\n    /* \"#utility.yul\":1451:1460   */\n  dup4\n    /* \"#utility.yul\":1447:1472   */\n  and\n    /* \"#utility.yul\":1442:1445   */\n  dup7\n    /* \"#utility.yul\":1435:1473   */\n  mstore\n    /* \"#utility.yul\":1528:1534   */\n  dup2\n    /* \"#utility.yul\":1521:1535   */\n  iszero\n    /* \"#utility.yul\":1514:1536   */\n  iszero\n    /* \"#utility.yul\":1506:1512   */\n  dup3\n    /* \"#utility.yul\":1502:1537   */\n  mul\n    /* \"#utility.yul\":1497:1500   */\n  dup7\n    /* \"#utility.yul\":1493:1538   */\n  add\n    /* \"#utility.yul\":1486:1538   */\n  swap4\n  pop\n    /* \"#utility.yul\":1382:1548   */\n  jump(tag_100)\n    /* \"#utility.yul\":1557:1898   */\ntag_102:\n    /* \"#utility.yul\":1624:1662   */\n  tag_103\n    /* \"#utility.yul\":1656:1661   */\n  dup6\n    /* \"#utility.yul\":1624:1662   */\n  tag_64\n  jump\t// in\ntag_103:\n    /* \"#utility.yul\":1684:1685   */\n  0x00\n    /* \"#utility.yul\":1698:1852   */\ntag_104:\n    /* \"#utility.yul\":1712:1718   */\n  dup4\n    /* \"#utility.yul\":1709:1710   */\n  dup2\n    /* \"#utility.yul\":1706:1719   */\n  lt\n    /* \"#utility.yul\":1698:1852   */\n  iszero\n  tag_106\n  jumpi\n    /* \"#utility.yul\":1786:1793   */\n  dup2\n    /* \"#utility.yul\":1780:1794   */\n  sload\n    /* \"#utility.yul\":1776:1777   */\n  dup2\n    /* \"#utility.yul\":1771:1774   */\n  dup10\n    /* \"#utility.yul\":1767:1778   */\n  add\n    /* \"#utility.yul\":1760:1795   */\n  mstore\n    /* \"#utility.yul\":1836:1837   */\n  0x01\n    /* \"#utility.yul\":1827:1834   */\n  dup3\n    /* \"#utility.yul\":1823:1838   */\n  add\n    /* \"#utility.yul\":1812:1838   */\n  swap2\n  pop\n    /* \"#utility.yul\":1734:1738   */\n  0x20\n    /* \"#utility.yul\":1731:1732   */\n  dup2\n    /* \"#utility.yul\":1727:1739   */\n  add\n    /* \"#utility.yul\":1722:1739   */\n  swap1\n  pop\n    /* \"#utility.yul\":1698:1852   */\n  jump(tag_104)\ntag_106:\n    /* \"#utility.yul\":1881:1887   */\n  dup4\n    /* \"#utility.yul\":1876:1879   */\n  dup9\n    /* \"#utility.yul\":1872:1888   */\n  add\n    /* \"#utility.yul\":1865:1888   */\n  swap6\n  pop\n    /* \"#utility.yul\":1564:1898   */\n  pop\n  pop\n    /* \"#utility.yul\":1349:1898   */\ntag_100:\n  pop\n    /* \"#utility.yul\":1137:1904   */\n  pop\n  pop\n    /* \"#utility.yul\":1030:1904   */\n  swap3\n  swap2\n  pop\n  pop\n  jump\t// out\n    /* \"#utility.yul\":1910:2179   */\ntag_14:\n    /* \"#utility.yul\":2039:2042   */\n  0x00\n    /* \"#utility.yul\":2061:2153   */\n  tag_108\n    /* \"#utility.yul\":2149:2152   */\n  dup3\n    /* \"#utility.yul\":2140:2146   */\n  dup5\n    /* \"#utility.yul\":2061:2153   */\n  tag_65\n  jump\t// in\ntag_108:\n    /* \"#utility.yul\":2054:2153   */\n  swap2\n  pop\n    /* \"#utility.yul\":2170:2173   */\n  dup2\n    /* \"#utility.yul\":2163:2173   */\n  swap1\n  pop\n    /* \"#utility.yul\":1910:2179   */\n  swap3\n  swap2\n  pop\n  pop\n  jump\t// out\n    /* \"#utility.yul\":2185:2365   */\ntag_66:\n    /* \"#utility.yul\":2233:2310   */\n  0x4e487b7100000000000000000000000000000000000000000000000000000000\n    /* \"#utility.yul\":2230:2231   */\n  0x00\n    /* \"#utility.yul\":2223:2311   */\n  mstore\n    /* \"#utility.yul\":2330:2334   */\n  0x11\n    /* \"#utility.yul\":2327:2328   */\n  0x04\n    /* \"#utility.yul\":2320:2335   */\n  mstore\n    /* \"#utility.yul\":2354:2358   */\n  0x24\n    /* \"#utility.yul\":2351:2352   */\n  0x00\n    /* \"#utility.yul\":2344:2359   */\n  revert\n    /* \"#utility.yul\":2371:2448   */\ntag_67:\n    /* \"#utility.yul\":2408:2415   */\n  0x00\n    /* \"#utility.yul\":2437:2442   */\n  dup2\n    /* \"#utility.yul\":2426:2442   */\n  swap1\n  pop\n    /* \"#utility.yul\":2371:2448   */\n  swap2\n  swap1\n  pop\n  jump\t// out\n    /* \"#utility.yul\":2454:2687   */\ntag_17:\n    /* \"#utility.yul\":2493:2496   */\n  0x00\n    /* \"#utility.yul\":2516:2540   */\n  tag_112\n    /* \"#utility.yul\":2534:2539   */\n  dup3\n    /* \"#utility.yul\":2516:2540   */\n  tag_67\n  jump\t// in\ntag_112:\n    /* \"#utility.yul\":2507:2540   */\n  swap2\n  pop\n    /* \"#utility.yul\":2562:2628   */\n  0xffffffffffffffffffffffffffffffffffffffffffffffffffffffffffffffff\n    /* \"#utility.yul\":2555:2560   */\n  dup3\n    /* \"#utility.yul\":2552:2629   */\n  sub\n    /* \"#utility.yul\":2549:2652   */\n  tag_113\n  jumpi\n    /* \"#utility.yul\":2632:2650   */\n  tag_114\n  tag_66\n  jump\t// in\ntag_114:\n    /* \"#utility.yul\":2549:2652   */\ntag_113:\n    /* \"#utility.yul\":2679:2680   */\n  0x01\n    /* \"#utility.yul\":2672:2677   */\n  dup3\n    /* \"#utility.yul\":2668:2681   */\n  add\n    /* \"#utility.yul\":2661:2681   */\n  swap1\n  pop\n    /* \"#utility.yul\":2454:2687   */\n  swap2\n  swap1\n  pop\n  jump\t// out\n    /* \"#utility.yul\":2693:2887   */\ntag_24:\n    /* \"#utility.yul\":2733:2737   */\n  0x00\n    /* \"#utility.yul\":2753:2773   */\n  tag_116\n    /* \"#utility.yul\":2771:2772   */\n  dup3\n    /* \"#utility.yul\":2753:2773   */\n  tag_67\n  jump\t// in\ntag_116:\n    /* \"#utility.yul\":2748:2773   */\n  swap2\n  pop\n    /* \"#utility.yul\":2787:2807   */\n  tag_117\n    /* \"#utility.yul\":2805:2806   */\n  dup4\n    /* \"#utility.yul\":2787:2807   */\n  tag_67\n  jump\t// in\ntag_117:\n    /* \"#utility.yul\":2782:2807   */\n  swap3\n  pop\n    /* \"#utility.yul\":2831:2832   */\n  dup3\n    /* \"#utility.yul\":2828:2829   */\n  dup3\n    /* \"#utility.yul\":2824:2833   */\n  sub\n    /* \"#utility.yul\":2816:2833   */\n  swap1\n  pop\n    /* \"#utility.yul\":2855:2856   */\n  dup2\n    /* \"#utility.yul\":2849:2853   */\n  dup2\n    /* \"#utility.yul\":2846:2857   */\n  gt\n    /* \"#utility.yul\":2843:2880   */\n  iszero\n  tag_118\n  jumpi\n    /* \"#utility.yul\":2860:2878   */\n  tag_119\n  tag_66\n  jump\t// in\ntag_119:\n    /* \"#utility.yul\":2843:2880   */\ntag_118:\n    /* \"#utility.yul\":2693:2887   */\n  swap3\n  swap2\n  pop\n  pop\n  jump\t// out\n    /* \"#utility.yul\":2893:3084   */\ntag_26:\n    /* \"#utility.yul\":2933:2936   */\n  0x00\n    /* \"#utility.yul\":2952:2972   */\n  tag_121\n    /* \"#utility.yul\":2970:2971   */\n  dup3\n    /* \"#utility.yul\":2952:2972   */\n  tag_67\n  jump\t// in\ntag_121:\n    /* \"#utility.yul\":2947:2972   */\n  swap2\n  pop\n    /* \"#utility.yul\":2986:3006   */\n  tag_122\n    /* \"#utility.yul\":3004:3005   */\n  dup4\n    /* \"#utility.yul\":2986:3006   */\n  tag_67\n  jump\t// in\ntag_122:\n    /* \"#utility.yul\":2981:3006   */\n  swap3\n  pop\n    /* \"#utility.yul\":3029:3030   */\n  dup3\n    /* \"#utility.yul\":3026:3027   */\n  dup3\n    /* \"#utility.yul\":3022:3031   */\n  add\n    /* \"#utility.yul\":3015:3031   */\n  swap1\n  pop\n    /* \"#utility.yul\":3050:3053   */\n  dup1\n    /* \"#utility.yul\":3047:3048   */\n  dup3\n    /* \"#utility.yul\":3044:3054   */\n  gt\n    /* \"#utility.yul\":3041:3077   */\n  iszero\n  tag_123\n  jumpi\n    /* \"#utility.yul\":3057:3075   */\n  tag_124\n  tag_66\n  jump\t// in\ntag_124:\n    /* \"#utility.yul\":3041:3077   */\ntag_123:\n    /* \"#utility.yul\":2893:3084   */\n  swap3\n  swap2\n  pop\n  pop\n  jump\t// out\n    /* \"#utility.yul\":3090:3167   */\ntag_68:\n    /* \"#utility.yul\":3127:3134   */\n  0x00\n    /* \"#utility.yul\":3156:3161   */\n  dup2\n    /* \"#utility.yul\":3145:3161   */\n  swap1\n  pop\n    /* \"#utility.yul\":3090:3167   */\n  swap2\n  swap1\n  pop\n  jump\t// out\n    /* \"#utility.yul\":3173:3252   */\ntag_69:\n    /* \"#utility.yul\":3212:3219   */\n  0x00\n    /* \"#utility.yul\":3241:3246   */\n  dup2\n    /* \"#utility.yul\":3230:3246   */\n  swap1\n  pop\n    /* \"#utility.yul\":3173:3252   */\n  swap2\n  swap1\n  pop\n  jump\t// out\n    /* \"#utility.yul\":3258:3415   */\ntag_70:\n    /* \"#utility.yul\":3363:3408   */\n  tag_128\n    /* \"#utility.yul\":3383:3407   */\n  tag_129\n    /* \"#utility.yul\":3401:3406   */\n  dup3\n    /* \"#utility.yul\":3383:3407   */\n  tag_68\n  jump\t// in\ntag_129:\n    /* \"#utility.yul\":3363:3408   */\n  tag_69\n  jump\t// in\ntag_128:\n    /* \"#utility.yul\":3358:3361   */\n  dup3\n    /* \"#utility.yul\":3351:3409   */\n  mstore\n    /* \"#utility.yul\":3258:3415   */\n  pop\n  pop\n  jump\t// out\n    /* \"#utility.yul\":3421:3818   */\ntag_36:\n    /* \"#utility.yul\":3561:3564   */\n  0x00\n    /* \"#utility.yul\":3576:3651   */\n  tag_131\n    /* \"#utility.yul\":3647:3650   */\n  dup3\n    /* \"#utility.yul\":3638:3644   */\n  dup6\n    /* \"#utility.yul\":3576:3651   */\n  tag_70\n  jump\t// in\ntag_131:\n    /* \"#utility.yul\":3676:3678   */\n  0x20\n    /* \"#utility.yul\":3671:3674   */\n  dup3\n    /* \"#utility.yul\":3667:3679   */\n  add\n    /* \"#utility.yul\":3660:3679   */\n  swap2\n  pop\n    /* \"#utility.yul\":3689:3764   */\n  tag_132\n    /* \"#utility.yul\":3760:3763   */\n  dup3\n    /* \"#utility.yul\":3751:3757   */\n  dup5\n    /* \"#utility.yul\":3689:3764   */\n  tag_70\n  jump\t// in\ntag_132:\n    /* \"#utility.yul\":3789:3791   */\n  0x20\n    /* \"#utility.yul\":3784:3787   */\n  dup3\n    /* \"#utility.yul\":3780:3792   */\n  add\n    /* \"#utility.yul\":3773:3792   */\n  swap2\n  pop\n    /* \"#utility.yul\":3809:3812   */\n  dup2\n    /* \"#utility.yul\":3802:3812   */\n  swap1\n  pop\n    /* \"#utility.yul\":3421:3818   */\n  swap4\n  swap3\n  pop\n  pop\n  pop\n  jump\t// out\n    /* \"#utility.yul\":3824:4004   */\ntag_71:\n    /* \"#utility.yul\":3872:3949   */\n  0x4e487b7100000000000000000000000000000000000000000000000000000000\n    /* \"#utility.yul\":3869:3870   */\n  0x00\n    /* \"#utility.yul\":3862:3950   */\n  mstore\n    /* \"#utility.yul\":3969:3973   */\n  0x12\n    /* \"#utility.yul\":3966:3967   */\n  0x04\n    /* \"#utility.yul\":3959:3974   */\n  mstore\n    /* \"#utility.yul\":3993:3997   */\n  0x24\n    /* \"#utility.yul\":3990:3991   */\n  0x00\n    /* \"#utility.yul\":3983:3998   */\n  revert\n    /* \"#utility.yul\":4010:4195   */\ntag_41:\n    /* \"#utility.yul\":4050:4051   */\n  0x00\n    /* \"#utility.yul\":4067:4087   */\n  tag_135\n    /* \"#utility.yul\":4085:4086   */\n  dup3\n    /* \"#utility.yul\":4067:4087   */\n  tag_67\n  jump\t// in\ntag_135:\n    /* \"#utility.yul\":4062:4087   */\n  swap2\n  pop\n    /* \"#utility.yul\":4101:4121   */\n  tag_136\n    /* \"#utility.yul\":4119:4120   */\n  dup4\n    /* \"#utility.yul\":4101:4121   */\n  tag_67\n  jump\t// in\ntag_136:\n    /* \"#utility.yul\":4096:4121   */\n  swap3\n  pop\n    /* \"#utility.yul\":4140:4141   */\n  dup3\n    /* \"#utility.yul\":4130:4165   */\n  tag_137\n  jumpi\n    /* \"#utility.yul\":4145:4163   */\n  tag_138\n  tag_71\n  jump\t// in\ntag_138:\n    /* \"#utility.yul\":4130:4165   */\ntag_137:\n    /* \"#utility.yul\":4187:4188   */\n  dup3\n    /* \"#utility.yul\":4184:4185   */\n  dup3\n    /* \"#utility.yul\":4180:4189   */\n  div\n    /* \"#utility.yul\":4175:4189   */\n  swap1\n  pop\n    /* \"#utility.yul\":4010:4195   */\n  swap3\n  swap2\n  pop\n  pop\n  jump\t// out\n    /* \"#utility.yul\":4201:4300   */\ntag_72:\n    /* \"#utility.yul\":4253:4259   */\n  0x00\n    /* \"#utility.yul\":4287:4292   */\n  dup2\n    /* \"#utility.yul\":4281:4293   */\n  mload\n    /* \"#utility.yul\":4271:4293   */\n  swap1\n  pop\n    /* \"#utility.yul\":4201:4300   */\n  swap2\n  swap1\n  pop\n  jump\t// out\n    /* \"#utility.yul\":4306:4486   */\ntag_73:\n    /* \"#utility.yul\":4354:4431   */\n  0x4e487b7100000000000000000000000000000000000000000000000000000000\n    /* \"#utility.yul\":4351:4352   */\n  0x00\n    /* \"#utility.yul\":4344:4432   */\n  mstore\n    /* \"#utility.yul\":4451:4455   */\n  0x41\n    /* \"#utility.yul\":4448:4449   */\n  0x04\n    /* \"#utility.yul\":4441:4456   */\n  mstore\n    /* \"#utility.yul\":4475:4479   */\n  0x24\n    /* \"#utility.yul\":4472:4473   */\n  0x00\n    /* \"#utility.yul\":4465:4480   */\n  revert\n    /* \"#utility.yul\":4492:4585   */\ntag_74:\n    /* \"#utility.yul\":4529:4535   */\n  0x00\n    /* \"#utility.yul\":4576:4578   */\n  0x20\n    /* \"#utility.yul\":4571:4573   */\n  0x1f\n    /* \"#utility.yul\":4564:4569   */\n  dup4\n    /* \"#utility.yul\":4560:4574   */\n  add\n    /* \"#utility.yul\":4556:4579   */\n  div\n    /* \"#utility.yul\":4546:4579   */\n  swap1\n  pop\n    /* \"#utility.yul\":4492:4585   */\n  swap2\n  swap1\n  pop\n  jump\t// out\n    /* \"#utility.yul\":4591:4698   */\ntag_75:\n    /* \"#utility.yul\":4635:4643   */\n  0x00\n    /* \"#utility.yul\":4685:4690   */\n  dup3\n    /* \"#utility.yul\":4679:4683   */\n  dup3\n    /* \"#utility.yul\":4675:4691   */\n  shl\n    /* \"#utility.yul\":4654:4691   */\n  swap1\n  pop\n    /* \"#utility.yul\":4591:4698   */\n  swap3\n  swap2\n  pop\n  pop\n  jump\t// out\n    /* \"#utility.yul\":4704:5097   */\ntag_76:\n    /* \"#utility.yul\":4773:4779   */\n  0x00\n    /* \"#utility.yul\":4823:4824   */\n  0x08\n    /* \"#utility.yul\":4811:4821   */\n  dup4\n    /* \"#utility.yul\":4807:4825   */\n  mul\n    /* \"#utility.yul\":4846:4943   */\n  tag_144\n    /* \"#utility.yul\":4876:4942   */\n  0xffffffffffffffffffffffffffffffffffffffffffffffffffffffffffffffff\n    /* \"#utility.yul\":4865:4874   */\n  dup3\n    /* \"#utility.yul\":4846:4943   */\n  tag_75\n  jump\t// in\ntag_144:\n    /* \"#utility.yul\":4964:5003   */\n  tag_145\n    /* \"#utility.yul\":4994:5002   */\n  dup7\n    /* \"#utility.yul\":4983:4992   */\n  dup4\n    /* \"#utility.yul\":4964:5003   */\n  tag_75\n  jump\t// in\ntag_145:\n    /* \"#utility.yul\":4952:5003   */\n  swap6\n  pop\n    /* \"#utility.yul\":5036:5040   */\n  dup1\n    /* \"#utility.yul\":5032:5041   */\n  not\n    /* \"#utility.yul\":5025:5030   */\n  dup5\n    /* \"#utility.yul\":5021:5042   */\n  and\n    /* \"#utility.yul\":5012:5042   */\n  swap4\n  pop\n    /* \"#utility.yul\":5085:5089   */\n  dup1\n    /* \"#utility.yul\":5075:5083   */\n  dup7\n    /* \"#utility.yul\":5071:5090   */\n  and\n    /* \"#utility.yul\":5064:5069   */\n  dup5\n    /* \"#utility.yul\":5061:5091   */\n  or\n    /* \"#utility.yul\":5051:5091   */\n  swap3\n  pop\n    /* \"#utility.yul\":4780:5097   */\n  pop\n  pop\n    /* \"#utility.yul\":4704:5097   */\n  swap4\n  swap3\n  pop\n  pop\n  pop\n  jump\t// out\n    /* \"#utility.yul\":5103:5163   */\ntag_77:\n    /* \"#utility.yul\":5131:5134   */\n  0x00\n    /* \"#utility.yul\":5152:5157   */\n  dup2\n    /* \"#utility.yul\":5145:5157   */\n  swap1\n  pop\n    /* \"#utility.yul\":5103:5163   */\n  swap2\n  swap1\n  pop\n  jump\t// out\n    /* \"#utility.yul\":5169:5311   */\ntag_78:\n    /* \"#utility.yul\":5219:5228   */\n  0x00\n    /* \"#utility.yul\":5252:5305   */\n  tag_148\n    /* \"#utility.yul\":5270:5304   */\n  tag_149\n    /* \"#utility.yul\":5279:5303   */\n  tag_150\n    /* \"#utility.yul\":5297:5302   */\n  dup5\n    /* \"#utility.yul\":5279:5303   */\n  tag_67\n  jump\t// in\ntag_150:\n    /* \"#utility.yul\":5270:5304   */\n  tag_77\n  jump\t// in\ntag_149:\n    /* \"#utility.yul\":5252:5305   */\n  tag_67\n  jump\t// in\ntag_148:\n    /* \"#utility.yul\":5239:5305   */\n  swap1\n  pop\n    /* \"#utility.yul\":5169:5311   */\n  swap2\n  swap1\n  pop\n  jump\t// out\n    /* \"#utility.yul\":5317:5392   */\ntag_79:\n    /* \"#utility.yul\":5360:5363   */\n  0x00\n    /* \"#utility.yul\":5381:5386   */\n  dup2\n    /* \"#utility.yul\":5374:5386   */\n  swap1\n  pop\n    /* \"#utility.yul\":5317:5392   */\n  swap2\n  swap1\n  pop\n  jump\t// out\n    /* \"#utility.yul\":5398:5667   */\ntag_80:\n    /* \"#utility.yul\":5508:5547   */\n  tag_153\n    /* \"#utility.yul\":5539:5546   */\n  dup4\n    /* \"#utility.yul\":5508:5547   */\n  tag_78\n  jump\t// in\ntag_153:\n    /* \"#utility.yul\":5569:5660   */\n  tag_154\n    /* \"#utility.yul\":5618:5659   */\n  tag_155\n    /* \"#utility.yul\":5642:5658   */\n  dup3\n    /* \"#utility.yul\":5618:5659   */\n  tag_79\n  jump\t// in\ntag_155:\n    /* \"#utility.yul\":5610:5616   */\n  dup5\n    /* \"#utility.yul\":5603:5607   */\n  dup5\n    /* \"#utility.yul\":5597:5608   */\n  sload\n    /* \"#utility.yul\":5569:5660   */\n  tag_76\n  jump\t// in\ntag_154:\n    /* \"#utility.yul\":5563:5567   */\n  dup3\n    /* \"#utility.yul\":5556:5661   */\n  sstore\n    /* \"#utility.yul\":5474:5667   */\n  pop\n    /* \"#utility.yul\":5398:5667   */\n  pop\n  pop\n  pop\n  jump\t// out\n    /* \"#utility.yul\":5673:5746   */\ntag_81:\n    /* \"#utility.yul\":5718:5721   */\n  0x00\n    /* \"#utility.yul\":5673:5746   */\n  swap1\n  jump\t// out\n    /* \"#utility.yul\":5752:5941   */\ntag_82:\n    /* \"#utility.yul\":5829:5861   */\n  tag_158\n  tag_81\n  jump\t// in\ntag_158:\n    /* \"#utility.yul\":5870:5935   */\n  tag_159\n    /* \"#utility.yul\":5928:5934   */\n  dup2\n    /* \"#utility.yul\":5920:5926   */\n  dup5\n    /* \"#utility.yul\":5914:5918   */\n  dup5\n    /* \"#utility.yul\":5870:5935   */\n  tag_80\n  jump\t// in\ntag_159:\n    /* \"#utility.yul\":5805:5941   */\n  pop\n    /* \"#utility.yul\":5752:5941   */\n  pop\n  pop\n  jump\t// out\n    /* \"#utility.yul\":5947:6133   */\ntag_83:\n    /* \"#utility.yul\":6007:6127   */\ntag_161:\n    /* \"#utility.yul\":6024:6027   */\n  dup2\n    /* \"#utility.yul\":6017:6022   */\n  dup2\n    /* \"#utility.yul\":6014:6028   */\n  lt\n    /* \"#utility.yul\":6007:6127   */\n  iszero\n  tag_163\n  jumpi\n    /* \"#utility.yul\":6078:6117   */\n  tag_164\n    /* \"#utility.yul\":6115:6116   */\n  0x00\n    /* \"#utility.yul\":6108:6113   */\n  dup3\n    /* \"#utility.yul\":6078:6117   */\n  tag_82\n  jump\t// in\ntag_164:\n    /* \"#utility.yul\":6051:6052   */\n  0x01\n    /* \"#utility.yul\":6044:6049   */\n  dup2\n    /* \"#utility.yul\":6040:6053   */\n  add\n    /* \"#utility.yul\":6031:6053   */\n  swap1\n  pop\n    /* \"#utility.yul\":6007:6127   */\n  jump(tag_161)\ntag_163:\n    /* \"#utility.yul\":5947:6133   */\n  pop\n  pop\n  jump\t// out\n    /* \"#utility.yul\":6139:6682   */\ntag_84:\n    /* \"#utility.yul\":6240:6242   */\n  0x1f\n    /* \"#utility.yul\":6235:6238   */\n  dup3\n    /* \"#utility.yul\":6232:6243   */\n  gt\n    /* \"#utility.yul\":6229:6675   */\n  iszero\n  tag_166\n  jumpi\n    /* \"#utility.yul\":6274:6312   */\n  tag_167\n    /* \"#utility.yul\":6306:6311   */\n  dup2\n    /* \"#utility.yul\":6274:6312   */\n  tag_64\n  jump\t// in\ntag_167:\n    /* \"#utility.yul\":6358:6387   */\n  tag_168\n    /* \"#utility.yul\":6376:6386   */\n  dup5\n    /* \"#utility.yul\":6358:6387   */\n  tag_74\n  jump\t// in\ntag_168:\n    /* \"#utility.yul\":6348:6356   */\n  dup2\n    /* \"#utility.yul\":6344:6388   */\n  add\n    /* \"#utility.yul\":6541:6543   */\n  0x20\n    /* \"#utility.yul\":6529:6539   */\n  dup6\n    /* \"#utility.yul\":6526:6544   */\n  lt\n    /* \"#utility.yul\":6523:6572   */\n  iszero\n  tag_169\n  jumpi\n    /* \"#utility.yul\":6562:6570   */\n  dup2\n    /* \"#utility.yul\":6547:6570   */\n  swap1\n  pop\n    /* \"#utility.yul\":6523:6572   */\ntag_169:\n    /* \"#utility.yul\":6585:6665   */\n  tag_170\n    /* \"#utility.yul\":6641:6663   */\n  tag_171\n    /* \"#utility.yul\":6659:6662   */\n  dup6\n    /* \"#utility.yul\":6641:6663   */\n  tag_74\n  jump\t// in\ntag_171:\n    /* \"#utility.yul\":6631:6639   */\n  dup4\n    /* \"#utility.yul\":6627:6664   */\n  add\n    /* \"#utility.yul\":6614:6625   */\n  dup3\n    /* \"#utility.yul\":6585:6665   */\n  tag_83\n  jump\t// in\ntag_170:\n    /* \"#utility.yul\":6244:6675   */\n  pop\n  pop\n    /* \"#utility.yul\":6229:6675   */\ntag_166:\n    /* \"#utility.yul\":6139:6682   */\n  pop\n  pop\n  pop\n  jump\t// out\n    /* \"#utility.yul\":6688:6805   */\ntag_85:\n    /* \"#utility.yul\":6742:6750   */\n  0x00\n    /* \"#utility.yul\":6792:6797   */\n  dup3\n    /* \"#utility.yul\":6786:6790   */\n  dup3\n    /* \"#utility.yul\":6782:6798   */\n  shr\n    /* \"#utility.yul\":6761:6798   */\n  swap1\n  pop\n    /* \"#utility.yul\":6688:6805   */\n  swap3\n  swap2\n  pop\n  pop\n  jump\t// out\n    /* \"#utility.yul\":6811:6980   */\ntag_86:\n    /* \"#utility.yul\":6855:6861   */\n  0x00\n    /* \"#utility.yul\":6888:6939   */\n  tag_174\n    /* \"#utility.yul\":6936:6937   */\n  0x00\n    /* \"#utility.yul\":6932:6938   */\n  not\n    /* \"#utility.yul\":6924:6929   */\n  dup5\n    /* \"#utility.yul\":6921:6922   */\n  0x08\n    /* \"#utility.yul\":6917:6930   */\n  mul\n    /* \"#utility.yul\":6888:6939   */\n  tag_85\n  jump\t// in\ntag_174:\n    /* \"#utility.yul\":6884:6940   */\n  not\n    /* \"#utility.yul\":6969:6973   */\n  dup1\n    /* \"#utility.yul\":6963:6967   */\n  dup4\n    /* \"#utility.yul\":6959:6974   */\n  and\n    /* \"#utility.yul\":6949:6974   */\n  swap2\n  pop\n    /* \"#utility.yul\":6862:6980   */\n  pop\n    /* \"#utility.yul\":6811:6980   */\n  swap3\n  swap2\n  pop\n  pop\n  jump\t// out\n    /* \"#utility.yul\":6985:7280   */\ntag_87:\n    /* \"#utility.yul\":7061:7065   */\n  0x00\n    /* \"#utility.yul\":7207:7236   */\n  tag_176\n    /* \"#utility.yul\":7232:7235   */\n  dup4\n    /* \"#utility.yul\":7226:7230   */\n  dup4\n    /* \"#utility.yul\":7207:7236   */\n  tag_86\n  jump\t// in\ntag_176:\n    /* \"#utility.yul\":7199:7236   */\n  swap2\n  pop\n    /* \"#utility.yul\":7269:7272   */\n  dup3\n    /* \"#utility.yul\":7266:7267   */\n  0x02\n    /* \"#utility.yul\":7262:7273   */\n  mul\n    /* \"#utility.yul\":7256:7260   */\n  dup3\n    /* \"#utility.yul\":7253:7274   */\n  or\n    /* \"#utility.yul\":7245:7274   */\n  swap1\n  pop\n    /* \"#utility.yul\":6985:7280   */\n  swap3\n  swap2\n  pop\n  pop\n  jump\t// out\n    /* \"#utility.yul\":7285:8680   */\ntag_47:\n    /* \"#utility.yul\":7402:7439   */\n  tag_178\n    /* \"#utility.yul\":7435:7438   */\n  dup3\n    /* \"#utility.yul\":7402:7439   */\n  tag_72\n  jump\t// in\ntag_178:\n    /* \"#utility.yul\":7504:7522   */\n  0xffffffffffffffff\n    /* \"#utility.yul\":7496:7502   */\n  dup2\n    /* \"#utility.yul\":7493:7523   */\n  gt\n    /* \"#utility.yul\":7490:7546   */\n  iszero\n  tag_179\n  jumpi\n    /* \"#utility.yul\":7526:7544   */\n  tag_180\n  tag_73\n  jump\t// in\ntag_180:\n    /* \"#utility.yul\":7490:7546   */\ntag_179:\n    /* \"#utility.yul\":7570:7608   */\n  tag_181\n    /* \"#utility.yul\":7602:7606   */\n  dup3\n    /* \"#utility.yul\":7596:7607   */\n  sload\n    /* \"#utility.yul\":7570:7608   */\n  tag_55\n  jump\t// in\ntag_181:\n    /* \"#utility.yul\":7655:7722   */\n  tag_182\n    /* \"#utility.yul\":7715:7721   */\n  dup3\n    /* \"#utility.yul\":7707:7713   */\n  dup3\n    /* \"#utility.yul\":7701:7705   */\n  dup6\n    /* \"#utility.yul\":7655:7722   */\n  tag_84\n  jump\t// in\ntag_182:\n    /* \"#utility.yul\":7749:7750   */\n  0x00\n    /* \"#utility.yul\":7773:7777   */\n  0x20\n    /* \"#utility.yul\":7760:7777   */\n  swap1\n  pop\n    /* \"#utility.yul\":7805:7807   */\n  0x1f\n    /* \"#utility.yul\":7797:7803   */\n  dup4\n    /* \"#utility.yul\":7794:7808   */\n  gt\n    /* \"#utility.yul\":7822:7823   */\n  0x01\n    /* \"#utility.yul\":7817:8435   */\n  dup2\n  eq\n  tag_184\n  jumpi\n    /* \"#utility.yul\":8479:8480   */\n  0x00\n    /* \"#utility.yul\":8496:8502   */\n  dup5\n    /* \"#utility.yul\":8493:8570   */\n  iszero\n  tag_185\n  jumpi\n    /* \"#utility.yul\":8545:8554   */\n  dup3\n    /* \"#utility.yul\":8540:8543   */\n  dup8\n    /* \"#utility.yul\":8536:8555   */\n  add\n    /* \"#utility.yul\":8530:8556   */\n  mload\n    /* \"#utility.yul\":8521:8556   */\n  swap1\n  pop\n    /* \"#utility.yul\":8493:8570   */\ntag_185:\n    /* \"#utility.yul\":8596:8663   */\n  tag_186\n    /* \"#utility.yul\":8656:8662   */\n  dup6\n    /* \"#utility.yul\":8649:8654   */\n  dup3\n    /* \"#utility.yul\":8596:8663   */\n  tag_87\n  jump\t// in\ntag_186:\n    /* \"#utility.yul\":8590:8594   */\n  dup7\n    /* \"#utility.yul\":8583:8664   */\n  sstore\n    /* \"#utility.yul\":8452:8674   */\n  pop\n    /* \"#utility.yul\":7787:8674   */\n  jump(tag_183)\n    /* \"#utility.yul\":7817:8435   */\ntag_184:\n    /* \"#utility.yul\":7869:7873   */\n  0x1f\n    /* \"#utility.yul\":7865:7874   */\n  not\n    /* \"#utility.yul\":7857:7863   */\n  dup5\n    /* \"#utility.yul\":7853:7875   */\n  and\n    /* \"#utility.yul\":7903:7940   */\n  tag_187\n    /* \"#utility.yul\":7935:7939   */\n  dup7\n    /* \"#utility.yul\":7903:7940   */\n  tag_64\n  jump\t// in\ntag_187:\n    /* \"#utility.yul\":7962:7963   */\n  0x00\n    /* \"#utility.yul\":7976:8184   */\ntag_188:\n    /* \"#utility.yul\":7990:7997   */\n  dup3\n    /* \"#utility.yul\":7987:7988   */\n  dup2\n    /* \"#utility.yul\":7984:7998   */\n  lt\n    /* \"#utility.yul\":7976:8184   */\n  iszero\n  tag_190\n  jumpi\n    /* \"#utility.yul\":8069:8078   */\n  dup5\n    /* \"#utility.yul\":8064:8067   */\n  dup10\n    /* \"#utility.yul\":8060:8079   */\n  add\n    /* \"#utility.yul\":8054:8080   */\n  mload\n    /* \"#utility.yul\":8046:8052   */\n  dup3\n    /* \"#utility.yul\":8039:8081   */\n  sstore\n    /* \"#utility.yul\":8120:8121   */\n  0x01\n    /* \"#utility.yul\":8112:8118   */\n  dup3\n    /* \"#utility.yul\":8108:8122   */\n  add\n    /* \"#utility.yul\":8098:8122   */\n  swap2\n  pop\n    /* \"#utility.yul\":8167:8169   */\n  0x20\n    /* \"#utility.yul\":8156:8165   */\n  dup6\n    /* \"#utility.yul\":8152:8170   */\n  add\n    /* \"#utility.yul\":8139:8170   */\n  swap5\n  pop\n    /* \"#utility.yul\":8013:8017   */\n  0x20\n    /* \"#utility.yul\":8010:8011   */\n  dup2\n    /* \"#utility.yul\":8006:8018   */\n  add\n    /* \"#utility.yul\":8001:8018   */\n  swap1\n  pop\n    /* \"#utility.yul\":7976:8184   */\n  jump(tag_188)\ntag_190:\n    /* \"#utility.yul\":8212:8218   */\n  dup7\n    /* \"#utility.yul\":8203:8210   */\n  dup4\n    /* \"#utility.yul\":8200:8219   */\n  lt\n    /* \"#utility.yul\":8197:8376   */\n  iszero\n  tag_191\n  jumpi\n    /* \"#utility.yul\":8270:8279   */\n  dup5\n    /* \"#utility.yul\":8265:8268   */\n  dup10\n    /* \"#utility.yul\":8261:8280   */\n  add\n    /* \"#utility.yul\":8255:8281   */\n  mload\n    /* \"#utility.yul\":8313:8361   */\n  tag_192\n    /* \"#utility.yul\":8355:8359   */\n  0x1f\n    /* \"#utility.yul\":8347:8353   */\n  dup10\n    /* \"#utility.yul\":8343:8360   */\n  and\n    /* \"#utility.yul\":8332:8341   */\n  dup3\n    /* \"#utility.yul\":8313:8361   */\n  tag_86\n  jump\t// in\ntag_192:\n    /* \"#utility.yul\":8305:8311   */\n  dup4\n    /* \"#utility.yul\":8298:8362   */\n  sstore\n    /* \"#utility.yul\":8220:8376   */\n  pop\n    /* \"#utility.yul\":8197:8376   */\ntag_191:\n    /* \"#utility.yul\":8422:8423   */\n  0x01\n    /* \"#utility.yul\":8418:8419   */\n  0x02\n    /* \"#utility.yul\":8410:8416   */\n  dup9\n    /* \"#utility.yul\":8406:8420   */\n  mul\n    /* \"#utility.yul\":8402:8424   */\n  add\n    /* \"#utility.yul\":8396:8400   */\n  dup9\n    /* \"#utility.yul\":8389:8425   */\n  sstore\n    /* \"#utility.yul\":7824:8435   */\n  pop\n  pop\n  pop\n    /* \"#utility.yul\":7787:8674   */\ntag_183:\n  pop\n    /* \"#utility.yul\":7377:8680   */\n  pop\n  pop\n  pop\n    /* \"#utility.yul\":7285:8680   */\n  pop\n  pop\n  jump\t// out\n    /* \"contracts/Tree.sol\":59:1808  contract Tree {... */\ntag_42:\n  dataSize(sub_0)\n  dup1\n  dataOffset(sub_0)\n  0x00\n  codecopy\n  0x00\n  return\nstop\n\nsub_0: assembly {\n        /* \"contracts/Tree.sol\":59:1808  contract Tree {... */\n      mstore(0x40, 0x80)\n      callvalue\n      dup1\n      iszero\n      tag_1\n      jumpi\n      0x00\n      dup1\n      revert\n    tag_1:\n      pop\n      jumpi(tag_2, lt(calldatasize, 0x04))\n      shr(0xe0, calldataload(0x00))\n      dup1\n      0x2637cccf\n      eq\n      tag_3\n      jumpi\n      dup1\n      0x501895ae\n      eq\n      tag_4\n      jumpi\n      dup1\n      0x52de70af\n      eq\n      tag_5\n      jumpi\n      dup1\n      0x9ace38c2\n      eq\n      tag_6\n      jumpi\n    tag_2:\n      0x00\n      dup1\n      revert\n        /* \"contracts/Tree.sol\":1008:1651  function verify(string memory transaction, uint index, bytes32 root, bytes32[] memory proof) public pure returns (bool) {... */\n    tag_3:\n      tag_7\n      0x04\n      dup1\n      calldatasize\n      sub\n      dup2\n      add\n      swap1\n      tag_8\n      swap2\n      swap1\n      tag_9\n      jump\t// in\n    tag_8:\n      tag_10\n      jump\t// in\n    tag_7:\n      mload(0x40)\n      tag_11\n      swap2\n      swap1\n      tag_12\n      jump\t// in\n    tag_11:\n      mload(0x40)\n      dup1\n      swap2\n      sub\n      swap1\n      return\n        /* \"contracts/Tree.sol\":101:124  bytes32[] public hashes */\n    tag_4:\n      tag_13\n      0x04\n      dup1\n      calldatasize\n      sub\n      dup2\n      add\n      swap1\n      tag_14\n      swap2\n      swap1\n      tag_15\n      jump\t// in\n    tag_14:\n      tag_16\n      jump\t// in\n    tag_13:\n      mload(0x40)\n      tag_17\n      swap2\n      swap1\n      tag_18\n      jump\t// in\n    tag_17:\n      mload(0x40)\n      dup1\n      swap2\n      sub\n      swap1\n      return\n        /* \"contracts/Tree.sol\":1657:1806  function makeHash(string memory input) public pure returns (bytes32) {... */\n    tag_5:\n      tag_19\n      0x04\n      dup1\n      calldatasize\n      sub\n      dup2\n      add\n      swap1\n      tag_20\n      swap2\n      swap1\n      tag_21\n      jump\t// in\n    tag_20:\n      tag_22\n      jump\t// in\n    tag_19:\n      mload(0x40)\n      tag_23\n      swap2\n      swap1\n      tag_18\n      jump\t// in\n    tag_23:\n      mload(0x40)\n      dup1\n      swap2\n      sub\n      swap1\n      return\n        /* \"contracts/Tree.sol\":130:293  string[4] public transactions = [... */\n    tag_6:\n      tag_24\n      0x04\n      dup1\n      calldatasize\n      sub\n      dup2\n      add\n      swap1\n      tag_25\n      swap2\n      swap1\n      tag_15\n      jump\t// in\n    tag_25:\n      tag_26\n      jump\t// in\n    tag_24:\n      mload(0x40)\n      tag_27\n      swap2\n      swap1\n      tag_28\n      jump\t// in\n    tag_27:\n      mload(0x40)\n      dup1\n      swap2\n      sub\n      swap1\n      return\n        /* \"contracts/Tree.sol\":1008:1651  function verify(string memory transaction, uint index, bytes32 root, bytes32[] memory proof) public pure returns (bool) {... */\n    tag_10:\n        /* \"contracts/Tree.sol\":1122:1126  bool */\n      0x00\n        /* \"contracts/Tree.sol\":1138:1150  bytes32 hash */\n      dup1\n        /* \"contracts/Tree.sol\":1180:1191  transaction */\n      dup6\n        /* \"contracts/Tree.sol\":1163:1192  abi.encodePacked(transaction) */\n      add(0x20, mload(0x40))\n      tag_30\n      swap2\n      swap1\n      tag_31\n      jump\t// in\n    tag_30:\n      mload(0x40)\n      0x20\n      dup2\n      dup4\n      sub\n      sub\n      dup2\n      mstore\n      swap1\n      0x40\n      mstore\n        /* \"contracts/Tree.sol\":1153:1193  keccak256(abi.encodePacked(transaction)) */\n      dup1\n      mload\n      swap1\n      0x20\n      add\n      keccak256\n        /* \"contracts/Tree.sol\":1138:1193  bytes32 hash = keccak256(abi.encodePacked(transaction)) */\n      swap1\n      pop\n        /* \"contracts/Tree.sol\":1209:1215  uint i */\n      0x00\n        /* \"contracts/Tree.sol\":1204:1615  for (uint i = 0; i < proof.length; i++) ... */\n    tag_32:\n        /* \"contracts/Tree.sol\":1225:1230  proof */\n      dup4\n        /* \"contracts/Tree.sol\":1225:1237  proof.length */\n      mload\n        /* \"contracts/Tree.sol\":1221:1222  i */\n      dup2\n        /* \"contracts/Tree.sol\":1221:1237  i < proof.length */\n      lt\n        /* \"contracts/Tree.sol\":1204:1615  for (uint i = 0; i < proof.length; i++) ... */\n      iszero\n      tag_33\n      jumpi\n        /* \"contracts/Tree.sol\":1267:1282  bytes32 element */\n      0x00\n        /* \"contracts/Tree.sol\":1285:1290  proof */\n      dup5\n        /* \"contracts/Tree.sol\":1291:1292  i */\n      dup3\n        /* \"contracts/Tree.sol\":1285:1293  proof[i] */\n      dup2\n      mload\n      dup2\n      lt\n      tag_35\n      jumpi\n      tag_36\n      tag_37\n      jump\t// in\n    tag_36:\n    tag_35:\n      0x20\n      mul\n      0x20\n      add\n      add\n      mload\n        /* \"contracts/Tree.sol\":1267:1293  bytes32 element = proof[i] */\n      swap1\n      pop\n        /* \"contracts/Tree.sol\":1324:1325  0 */\n      0x00\n        /* \"contracts/Tree.sol\":1319:1320  2 */\n      0x02\n        /* \"contracts/Tree.sol\":1311:1316  index */\n      dup9\n        /* \"contracts/Tree.sol\":1311:1320  index % 2 */\n      tag_38\n      swap2\n      swap1\n      tag_39\n      jump\t// in\n    tag_38:\n        /* \"contracts/Tree.sol\":1311:1325  index % 2 == 0 */\n      sub\n        /* \"contracts/Tree.sol\":1307:1573  if (index % 2 == 0) {... */\n      tag_40\n      jumpi\n        /* \"contracts/Tree.sol\":1400:1404  hash */\n      dup3\n        /* \"contracts/Tree.sol\":1406:1413  element */\n      dup2\n        /* \"contracts/Tree.sol\":1383:1414  abi.encodePacked(hash, element) */\n      add(0x20, mload(0x40))\n      tag_41\n      swap3\n      swap2\n      swap1\n      tag_42\n      jump\t// in\n    tag_41:\n      mload(0x40)\n      0x20\n      dup2\n      dup4\n      sub\n      sub\n      dup2\n      mstore\n      swap1\n      0x40\n      mstore\n        /* \"contracts/Tree.sol\":1352:1432  keccak256(... */\n      dup1\n      mload\n      swap1\n      0x20\n      add\n      keccak256\n        /* \"contracts/Tree.sol\":1345:1432  hash = keccak256(... */\n      swap3\n      pop\n        /* \"contracts/Tree.sol\":1307:1573  if (index % 2 == 0) {... */\n      jump(tag_43)\n    tag_40:\n        /* \"contracts/Tree.sol\":1526:1533  element */\n      dup1\n        /* \"contracts/Tree.sol\":1535:1539  hash */\n      dup4\n        /* \"contracts/Tree.sol\":1509:1540  abi.encodePacked(element, hash) */\n      add(0x20, mload(0x40))\n      tag_44\n      swap3\n      swap2\n      swap1\n      tag_42\n      jump\t// in\n    tag_44:\n      mload(0x40)\n      0x20\n      dup2\n      dup4\n      sub\n      sub\n      dup2\n      mstore\n      swap1\n      0x40\n      mstore\n        /* \"contracts/Tree.sol\":1478:1558  keccak256(... */\n      dup1\n      mload\n      swap1\n      0x20\n      add\n      keccak256\n        /* \"contracts/Tree.sol\":1471:1558  hash = keccak256(... */\n      swap3\n      pop\n        /* \"contracts/Tree.sol\":1307:1573  if (index % 2 == 0) {... */\n    tag_43:\n        /* \"contracts/Tree.sol\":1603:1604  2 */\n      0x02\n        /* \"contracts/Tree.sol\":1595:1600  index */\n      dup8\n        /* \"contracts/Tree.sol\":1595:1604  index / 2 */\n      tag_45\n      swap2\n      swap1\n      tag_46\n      jump\t// in\n    tag_45:\n        /* \"contracts/Tree.sol\":1587:1604  index = index / 2 */\n      swap7\n      pop\n        /* \"contracts/Tree.sol\":1253:1615  {... */\n      pop\n        /* \"contracts/Tree.sol\":1239:1242  i++ */\n      dup1\n      dup1\n      tag_47\n      swap1\n      tag_48\n      jump\t// in\n    tag_47:\n      swap2\n      pop\n      pop\n        /* \"contracts/Tree.sol\":1204:1615  for (uint i = 0; i < proof.length; i++) ... */\n      jump(tag_32)\n    tag_33:\n      pop\n        /* \"contracts/Tree.sol\":1640:1644  root */\n      dup4\n        /* \"contracts/Tree.sol\":1632:1636  hash */\n      dup2\n        /* \"contracts/Tree.sol\":1632:1644  hash == root */\n      eq\n        /* \"contracts/Tree.sol\":1625:1644  return hash == root */\n      swap2\n      pop\n      pop\n        /* \"contracts/Tree.sol\":1008:1651  function verify(string memory transaction, uint index, bytes32 root, bytes32[] memory proof) public pure returns (bool) {... */\n      swap5\n      swap4\n      pop\n      pop\n      pop\n      pop\n      jump\t// out\n        /* \"contracts/Tree.sol\":101:124  bytes32[] public hashes */\n    tag_16:\n      0x00\n      dup2\n      dup2\n      sload\n      dup2\n      lt\n      tag_49\n      jumpi\n      0x00\n      dup1\n      revert\n    tag_49:\n      swap1\n      0x00\n      mstore\n      keccak256(0x00, 0x20)\n      add\n      0x00\n      swap2\n      pop\n      swap1\n      pop\n      sload\n      dup2\n      jump\t// out\n        /* \"contracts/Tree.sol\":1657:1806  function makeHash(string memory input) public pure returns (bytes32) {... */\n    tag_22:\n        /* \"contracts/Tree.sol\":1717:1724  bytes32 */\n      0x00\n        /* \"contracts/Tree.sol\":1783:1788  input */\n      dup2\n        /* \"contracts/Tree.sol\":1766:1789  abi.encodePacked(input) */\n      add(0x20, mload(0x40))\n      tag_52\n      swap2\n      swap1\n      tag_31\n      jump\t// in\n    tag_52:\n      mload(0x40)\n      0x20\n      dup2\n      dup4\n      sub\n      sub\n      dup2\n      mstore\n      swap1\n      0x40\n      mstore\n        /* \"contracts/Tree.sol\":1743:1799  keccak256(... */\n      dup1\n      mload\n      swap1\n      0x20\n      add\n      keccak256\n        /* \"contracts/Tree.sol\":1736:1799  return keccak256(... */\n      swap1\n      pop\n        /* \"contracts/Tree.sol\":1657:1806  function makeHash(string memory input) public pure returns (bytes32) {... */\n      swap2\n      swap1\n      pop\n      jump\t// out\n        /* \"contracts/Tree.sol\":130:293  string[4] public transactions = [... */\n    tag_26:\n      0x01\n      dup2\n      0x04\n      dup2\n      lt\n      tag_53\n      jumpi\n      0x00\n      dup1\n      revert\n    tag_53:\n      add\n      0x00\n      swap2\n      pop\n      swap1\n      pop\n      dup1\n      sload\n      tag_55\n      swap1\n      tag_56\n      jump\t// in\n    tag_55:\n      dup1\n      0x1f\n      add\n      0x20\n      dup1\n      swap2\n      div\n      mul\n      0x20\n      add\n      mload(0x40)\n      swap1\n      dup2\n      add\n      0x40\n      mstore\n      dup1\n      swap3\n      swap2\n      swap1\n      dup2\n      dup2\n      mstore\n      0x20\n      add\n      dup3\n      dup1\n      sload\n      tag_57\n      swap1\n      tag_56\n      jump\t// in\n    tag_57:\n      dup1\n      iszero\n      tag_58\n      jumpi\n      dup1\n      0x1f\n      lt\n      tag_59\n      jumpi\n      0x0100\n      dup1\n      dup4\n      sload\n      div\n      mul\n      dup4\n      mstore\n      swap2\n      0x20\n      add\n      swap2\n      jump(tag_58)\n    tag_59:\n      dup3\n      add\n      swap2\n      swap1\n      0x00\n      mstore\n      keccak256(0x00, 0x20)\n      swap1\n    tag_60:\n      dup2\n      sload\n      dup2\n      mstore\n      swap1\n      0x01\n      add\n      swap1\n      0x20\n      add\n      dup1\n      dup4\n      gt\n      tag_60\n      jumpi\n      dup3\n      swap1\n      sub\n      0x1f\n      and\n      dup3\n      add\n      swap2\n    tag_58:\n      pop\n      pop\n      pop\n      pop\n      pop\n      dup2\n      jump\t// out\n        /* \"#utility.yul\":7:82   */\n    tag_61:\n        /* \"#utility.yul\":40:46   */\n      0x00\n        /* \"#utility.yul\":73:75   */\n      0x40\n        /* \"#utility.yul\":67:76   */\n      mload\n        /* \"#utility.yul\":57:76   */\n      swap1\n      pop\n        /* \"#utility.yul\":7:82   */\n      swap1\n      jump\t// out\n        /* \"#utility.yul\":88:205   */\n    tag_62:\n        /* \"#utility.yul\":197:198   */\n      0x00\n        /* \"#utility.yul\":194:195   */\n      dup1\n        /* \"#utility.yul\":187:199   */\n      revert\n        /* \"#utility.yul\":211:328   */\n    tag_63:\n        /* \"#utility.yul\":320:321   */\n      0x00\n        /* \"#utility.yul\":317:318   */\n      dup1\n        /* \"#utility.yul\":310:322   */\n      revert\n        /* \"#utility.yul\":334:451   */\n    tag_64:\n        /* \"#utility.yul\":443:444   */\n      0x00\n        /* \"#utility.yul\":440:441   */\n      dup1\n        /* \"#utility.yul\":433:445   */\n      revert\n        /* \"#utility.yul\":457:574   */\n    tag_65:\n        /* \"#utility.yul\":566:567   */\n      0x00\n        /* \"#utility.yul\":563:564   */\n      dup1\n        /* \"#utility.yul\":556:568   */\n      revert\n        /* \"#utility.yul\":580:682   */\n    tag_66:\n        /* \"#utility.yul\":621:627   */\n      0x00\n        /* \"#utility.yul\":672:674   */\n      0x1f\n        /* \"#utility.yul\":668:675   */\n      not\n        /* \"#utility.yul\":663:665   */\n      0x1f\n        /* \"#utility.yul\":656:661   */\n      dup4\n        /* \"#utility.yul\":652:666   */\n      add\n        /* \"#utility.yul\":648:676   */\n      and\n        /* \"#utility.yul\":638:676   */\n      swap1\n      pop\n        /* \"#utility.yul\":580:682   */\n      swap2\n      swap1\n      pop\n      jump\t// out\n        /* \"#utility.yul\":688:868   */\n    tag_67:\n        /* \"#utility.yul\":736:813   */\n      0x4e487b7100000000000000000000000000000000000000000000000000000000\n        /* \"#utility.yul\":733:734   */\n      0x00\n        /* \"#utility.yul\":726:814   */\n      mstore\n        /* \"#utility.yul\":833:837   */\n      0x41\n        /* \"#utility.yul\":830:831   */\n      0x04\n        /* \"#utility.yul\":823:838   */\n      mstore\n        /* \"#utility.yul\":857:861   */\n      0x24\n        /* \"#utility.yul\":854:855   */\n      0x00\n        /* \"#utility.yul\":847:862   */\n      revert\n        /* \"#utility.yul\":874:1155   */\n    tag_68:\n        /* \"#utility.yul\":957:984   */\n      tag_107\n        /* \"#utility.yul\":979:983   */\n      dup3\n        /* \"#utility.yul\":957:984   */\n      tag_66\n      jump\t// in\n    tag_107:\n        /* \"#utility.yul\":949:955   */\n      dup2\n        /* \"#utility.yul\":945:985   */\n      add\n        /* \"#utility.yul\":1087:1093   */\n      dup2\n        /* \"#utility.yul\":1075:1085   */\n      dup2\n        /* \"#utility.yul\":1072:1094   */\n      lt\n        /* \"#utility.yul\":1051:1069   */\n      0xffffffffffffffff\n        /* \"#utility.yul\":1039:1049   */\n      dup3\n        /* \"#utility.yul\":1036:1070   */\n      gt\n        /* \"#utility.yul\":1033:1095   */\n      or\n        /* \"#utility.yul\":1030:1118   */\n      iszero\n      tag_108\n      jumpi\n        /* \"#utility.yul\":1098:1116   */\n      tag_109\n      tag_67\n      jump\t// in\n    tag_109:\n        /* \"#utility.yul\":1030:1118   */\n    tag_108:\n        /* \"#utility.yul\":1138:1148   */\n      dup1\n        /* \"#utility.yul\":1134:1136   */\n      0x40\n        /* \"#utility.yul\":1127:1149   */\n      mstore\n        /* \"#utility.yul\":917:1155   */\n      pop\n        /* \"#utility.yul\":874:1155   */\n      pop\n      pop\n      jump\t// out\n        /* \"#utility.yul\":1161:1290   */\n    tag_69:\n        /* \"#utility.yul\":1195:1201   */\n      0x00\n        /* \"#utility.yul\":1222:1242   */\n      tag_111\n      tag_61\n      jump\t// in\n    tag_111:\n        /* \"#utility.yul\":1212:1242   */\n      swap1\n      pop\n        /* \"#utility.yul\":1251:1284   */\n      tag_112\n        /* \"#utility.yul\":1279:1283   */\n      dup3\n        /* \"#utility.yul\":1271:1277   */\n      dup3\n        /* \"#utility.yul\":1251:1284   */\n      tag_68\n      jump\t// in\n    tag_112:\n        /* \"#utility.yul\":1161:1290   */\n      swap2\n      swap1\n      pop\n      jump\t// out\n        /* \"#utility.yul\":1296:1604   */\n    tag_70:\n        /* \"#utility.yul\":1358:1362   */\n      0x00\n        /* \"#utility.yul\":1448:1466   */\n      0xffffffffffffffff\n        /* \"#utility.yul\":1440:1446   */\n      dup3\n        /* \"#utility.yul\":1437:1467   */\n      gt\n        /* \"#utility.yul\":1434:1490   */\n      iszero\n      tag_114\n      jumpi\n        /* \"#utility.yul\":1470:1488   */\n      tag_115\n      tag_67\n      jump\t// in\n    tag_115:\n        /* \"#utility.yul\":1434:1490   */\n    tag_114:\n        /* \"#utility.yul\":1508:1537   */\n      tag_116\n        /* \"#utility.yul\":1530:1536   */\n      dup3\n        /* \"#utility.yul\":1508:1537   */\n      tag_66\n      jump\t// in\n    tag_116:\n        /* \"#utility.yul\":1500:1537   */\n      swap1\n      pop\n        /* \"#utility.yul\":1592:1596   */\n      0x20\n        /* \"#utility.yul\":1586:1590   */\n      dup2\n        /* \"#utility.yul\":1582:1597   */\n      add\n        /* \"#utility.yul\":1574:1597   */\n      swap1\n      pop\n        /* \"#utility.yul\":1296:1604   */\n      swap2\n      swap1\n      pop\n      jump\t// out\n        /* \"#utility.yul\":1610:1756   */\n    tag_71:\n        /* \"#utility.yul\":1707:1713   */\n      dup3\n        /* \"#utility.yul\":1702:1705   */\n      dup2\n        /* \"#utility.yul\":1697:1700   */\n      dup4\n        /* \"#utility.yul\":1684:1714   */\n      calldatacopy\n        /* \"#utility.yul\":1748:1749   */\n      0x00\n        /* \"#utility.yul\":1739:1745   */\n      dup4\n        /* \"#utility.yul\":1734:1737   */\n      dup4\n        /* \"#utility.yul\":1730:1746   */\n      add\n        /* \"#utility.yul\":1723:1750   */\n      mstore\n        /* \"#utility.yul\":1610:1756   */\n      pop\n      pop\n      pop\n      jump\t// out\n        /* \"#utility.yul\":1762:2187   */\n    tag_72:\n        /* \"#utility.yul\":1840:1845   */\n      0x00\n        /* \"#utility.yul\":1865:1931   */\n      tag_119\n        /* \"#utility.yul\":1881:1930   */\n      tag_120\n        /* \"#utility.yul\":1923:1929   */\n      dup5\n        /* \"#utility.yul\":1881:1930   */\n      tag_70\n      jump\t// in\n    tag_120:\n        /* \"#utility.yul\":1865:1931   */\n      tag_69\n      jump\t// in\n    tag_119:\n        /* \"#utility.yul\":1856:1931   */\n      swap1\n      pop\n        /* \"#utility.yul\":1954:1960   */\n      dup3\n        /* \"#utility.yul\":1947:1952   */\n      dup2\n        /* \"#utility.yul\":1940:1961   */\n      mstore\n        /* \"#utility.yul\":1992:1996   */\n      0x20\n        /* \"#utility.yul\":1985:1990   */\n      dup2\n        /* \"#utility.yul\":1981:1997   */\n      add\n        /* \"#utility.yul\":2030:2033   */\n      dup5\n        /* \"#utility.yul\":2021:2027   */\n      dup5\n        /* \"#utility.yul\":2016:2019   */\n      dup5\n        /* \"#utility.yul\":2012:2028   */\n      add\n        /* \"#utility.yul\":2009:2034   */\n      gt\n        /* \"#utility.yul\":2006:2118   */\n      iszero\n      tag_121\n      jumpi\n        /* \"#utility.yul\":2037:2116   */\n      tag_122\n      tag_65\n      jump\t// in\n    tag_122:\n        /* \"#utility.yul\":2006:2118   */\n    tag_121:\n        /* \"#utility.yul\":2127:2181   */\n      tag_123\n        /* \"#utility.yul\":2174:2180   */\n      dup5\n        /* \"#utility.yul\":2169:2172   */\n      dup3\n        /* \"#utility.yul\":2164:2167   */\n      dup6\n        /* \"#utility.yul\":2127:2181   */\n      tag_71\n      jump\t// in\n    tag_123:\n        /* \"#utility.yul\":1846:2187   */\n      pop\n        /* \"#utility.yul\":1762:2187   */\n      swap4\n      swap3\n      pop\n      pop\n      pop\n      jump\t// out\n        /* \"#utility.yul\":2207:2547   */\n    tag_73:\n        /* \"#utility.yul\":2263:2268   */\n      0x00\n        /* \"#utility.yul\":2312:2315   */\n      dup3\n        /* \"#utility.yul\":2305:2309   */\n      0x1f\n        /* \"#utility.yul\":2297:2303   */\n      dup4\n        /* \"#utility.yul\":2293:2310   */\n      add\n        /* \"#utility.yul\":2289:2316   */\n      slt\n        /* \"#utility.yul\":2279:2401   */\n      tag_125\n      jumpi\n        /* \"#utility.yul\":2320:2399   */\n      tag_126\n      tag_64\n      jump\t// in\n    tag_126:\n        /* \"#utility.yul\":2279:2401   */\n    tag_125:\n        /* \"#utility.yul\":2437:2443   */\n      dup2\n        /* \"#utility.yul\":2424:2444   */\n      calldataload\n        /* \"#utility.yul\":2462:2541   */\n      tag_127\n        /* \"#utility.yul\":2537:2540   */\n      dup5\n        /* \"#utility.yul\":2529:2535   */\n      dup3\n        /* \"#utility.yul\":2522:2526   */\n      0x20\n        /* \"#utility.yul\":2514:2520   */\n      dup7\n        /* \"#utility.yul\":2510:2527   */\n      add\n        /* \"#utility.yul\":2462:2541   */\n      tag_72\n      jump\t// in\n    tag_127:\n        /* \"#utility.yul\":2453:2541   */\n      swap2\n      pop\n        /* \"#utility.yul\":2269:2547   */\n      pop\n        /* \"#utility.yul\":2207:2547   */\n      swap3\n      swap2\n      pop\n      pop\n      jump\t// out\n        /* \"#utility.yul\":2553:2630   */\n    tag_74:\n        /* \"#utility.yul\":2590:2597   */\n      0x00\n        /* \"#utility.yul\":2619:2624   */\n      dup2\n        /* \"#utility.yul\":2608:2624   */\n      swap1\n      pop\n        /* \"#utility.yul\":2553:2630   */\n      swap2\n      swap1\n      pop\n      jump\t// out\n        /* \"#utility.yul\":2636:2758   */\n    tag_75:\n        /* \"#utility.yul\":2709:2733   */\n      tag_130\n        /* \"#utility.yul\":2727:2732   */\n      dup2\n        /* \"#utility.yul\":2709:2733   */\n      tag_74\n      jump\t// in\n    tag_130:\n        /* \"#utility.yul\":2702:2707   */\n      dup2\n        /* \"#utility.yul\":2699:2734   */\n      eq\n        /* \"#utility.yul\":2689:2752   */\n      tag_131\n      jumpi\n        /* \"#utility.yul\":2748:2749   */\n      0x00\n        /* \"#utility.yul\":2745:2746   */\n      dup1\n        /* \"#utility.yul\":2738:2750   */\n      revert\n        /* \"#utility.yul\":2689:2752   */\n    tag_131:\n        /* \"#utility.yul\":2636:2758   */\n      pop\n      jump\t// out\n        /* \"#utility.yul\":2764:2903   */\n    tag_76:\n        /* \"#utility.yul\":2810:2815   */\n      0x00\n        /* \"#utility.yul\":2848:2854   */\n      dup2\n        /* \"#utility.yul\":2835:2855   */\n      calldataload\n        /* \"#utility.yul\":2826:2855   */\n      swap1\n      pop\n        /* \"#utility.yul\":2864:2897   */\n      tag_133\n        /* \"#utility.yul\":2891:2896   */\n      dup2\n        /* \"#utility.yul\":2864:2897   */\n      tag_75\n      jump\t// in\n    tag_133:\n        /* \"#utility.yul\":2764:2903   */\n      swap3\n      swap2\n      pop\n      pop\n      jump\t// out\n        /* \"#utility.yul\":2909:2986   */\n    tag_77:\n        /* \"#utility.yul\":2946:2953   */\n      0x00\n        /* \"#utility.yul\":2975:2980   */\n      dup2\n        /* \"#utility.yul\":2964:2980   */\n      swap1\n      pop\n        /* \"#utility.yul\":2909:2986   */\n      swap2\n      swap1\n      pop\n      jump\t// out\n        /* \"#utility.yul\":2992:3114   */\n    tag_78:\n        /* \"#utility.yul\":3065:3089   */\n      tag_136\n        /* \"#utility.yul\":3083:3088   */\n      dup2\n        /* \"#utility.yul\":3065:3089   */\n      tag_77\n      jump\t// in\n    tag_136:\n        /* \"#utility.yul\":3058:3063   */\n      dup2\n        /* \"#utility.yul\":3055:3090   */\n      eq\n        /* \"#utility.yul\":3045:3108   */\n      tag_137\n      jumpi\n        /* \"#utility.yul\":3104:3105   */\n      0x00\n        /* \"#utility.yul\":3101:3102   */\n      dup1\n        /* \"#utility.yul\":3094:3106   */\n      revert\n        /* \"#utility.yul\":3045:3108   */\n    tag_137:\n        /* \"#utility.yul\":2992:3114   */\n      pop\n      jump\t// out\n        /* \"#utility.yul\":3120:3259   */\n    tag_79:\n        /* \"#utility.yul\":3166:3171   */\n      0x00\n        /* \"#utility.yul\":3204:3210   */\n      dup2\n        /* \"#utility.yul\":3191:3211   */\n      calldataload\n        /* \"#utility.yul\":3182:3211   */\n      swap1\n      pop\n        /* \"#utility.yul\":3220:3253   */\n      tag_139\n        /* \"#utility.yul\":3247:3252   */\n      dup2\n        /* \"#utility.yul\":3220:3253   */\n      tag_78\n      jump\t// in\n    tag_139:\n        /* \"#utility.yul\":3120:3259   */\n      swap3\n      swap2\n      pop\n      pop\n      jump\t// out\n        /* \"#utility.yul\":3265:3576   */\n    tag_80:\n        /* \"#utility.yul\":3342:3346   */\n      0x00\n        /* \"#utility.yul\":3432:3450   */\n      0xffffffffffffffff\n        /* \"#utility.yul\":3424:3430   */\n      dup3\n        /* \"#utility.yul\":3421:3451   */\n      gt\n        /* \"#utility.yul\":3418:3474   */\n      iszero\n      tag_141\n      jumpi\n        /* \"#utility.yul\":3454:3472   */\n      tag_142\n      tag_67\n      jump\t// in\n    tag_142:\n        /* \"#utility.yul\":3418:3474   */\n    tag_141:\n        /* \"#utility.yul\":3504:3508   */\n      0x20\n        /* \"#utility.yul\":3496:3502   */\n      dup3\n        /* \"#utility.yul\":3492:3509   */\n      mul\n        /* \"#utility.yul\":3484:3509   */\n      swap1\n      pop\n        /* \"#utility.yul\":3564:3568   */\n      0x20\n        /* \"#utility.yul\":3558:3562   */\n      dup2\n        /* \"#utility.yul\":3554:3569   */\n      add\n        /* \"#utility.yul\":3546:3569   */\n      swap1\n      pop\n        /* \"#utility.yul\":3265:3576   */\n      swap2\n      swap1\n      pop\n      jump\t// out\n        /* \"#utility.yul\":3582:3699   */\n    tag_81:\n        /* \"#utility.yul\":3691:3692   */\n      0x00\n        /* \"#utility.yul\":3688:3689   */\n      dup1\n        /* \"#utility.yul\":3681:3693   */\n      revert\n        /* \"#utility.yul\":3722:4432   */\n    tag_82:\n        /* \"#utility.yul\":3818:3823   */\n      0x00\n        /* \"#utility.yul\":3843:3924   */\n      tag_145\n        /* \"#utility.yul\":3859:3923   */\n      tag_146\n        /* \"#utility.yul\":3916:3922   */\n      dup5\n        /* \"#utility.yul\":3859:3923   */\n      tag_80\n      jump\t// in\n    tag_146:\n        /* \"#utility.yul\":3843:3924   */\n      tag_69\n      jump\t// in\n    tag_145:\n        /* \"#utility.yul\":3834:3924   */\n      swap1\n      pop\n        /* \"#utility.yul\":3944:3949   */\n      dup1\n        /* \"#utility.yul\":3973:3979   */\n      dup4\n        /* \"#utility.yul\":3966:3971   */\n      dup3\n        /* \"#utility.yul\":3959:3980   */\n      mstore\n        /* \"#utility.yul\":4007:4011   */\n      0x20\n        /* \"#utility.yul\":4000:4005   */\n      dup3\n        /* \"#utility.yul\":3996:4012   */\n      add\n        /* \"#utility.yul\":3989:4012   */\n      swap1\n      pop\n        /* \"#utility.yul\":4060:4064   */\n      0x20\n        /* \"#utility.yul\":4052:4058   */\n      dup5\n        /* \"#utility.yul\":4048:4065   */\n      mul\n        /* \"#utility.yul\":4040:4046   */\n      dup4\n        /* \"#utility.yul\":4036:4066   */\n      add\n        /* \"#utility.yul\":4089:4092   */\n      dup6\n        /* \"#utility.yul\":4081:4087   */\n      dup2\n        /* \"#utility.yul\":4078:4093   */\n      gt\n        /* \"#utility.yul\":4075:4197   */\n      iszero\n      tag_147\n      jumpi\n        /* \"#utility.yul\":4108:4187   */\n      tag_148\n      tag_81\n      jump\t// in\n    tag_148:\n        /* \"#utility.yul\":4075:4197   */\n    tag_147:\n        /* \"#utility.yul\":4223:4229   */\n      dup4\n        /* \"#utility.yul\":4206:4426   */\n    tag_149:\n        /* \"#utility.yul\":4240:4246   */\n      dup2\n        /* \"#utility.yul\":4235:4238   */\n      dup2\n        /* \"#utility.yul\":4232:4247   */\n      lt\n        /* \"#utility.yul\":4206:4426   */\n      iszero\n      tag_151\n      jumpi\n        /* \"#utility.yul\":4315:4318   */\n      dup1\n        /* \"#utility.yul\":4344:4381   */\n      tag_152\n        /* \"#utility.yul\":4377:4380   */\n      dup9\n        /* \"#utility.yul\":4365:4375   */\n      dup3\n        /* \"#utility.yul\":4344:4381   */\n      tag_79\n      jump\t// in\n    tag_152:\n        /* \"#utility.yul\":4339:4342   */\n      dup5\n        /* \"#utility.yul\":4332:4382   */\n      mstore\n        /* \"#utility.yul\":4411:4415   */\n      0x20\n        /* \"#utility.yul\":4406:4409   */\n      dup5\n        /* \"#utility.yul\":4402:4416   */\n      add\n        /* \"#utility.yul\":4395:4416   */\n      swap4\n      pop\n        /* \"#utility.yul\":4282:4426   */\n      pop\n        /* \"#utility.yul\":4266:4270   */\n      0x20\n        /* \"#utility.yul\":4261:4264   */\n      dup2\n        /* \"#utility.yul\":4257:4271   */\n      add\n        /* \"#utility.yul\":4250:4271   */\n      swap1\n      pop\n        /* \"#utility.yul\":4206:4426   */\n      jump(tag_149)\n    tag_151:\n        /* \"#utility.yul\":4210:4231   */\n      pop\n        /* \"#utility.yul\":3824:4432   */\n      pop\n      pop\n        /* \"#utility.yul\":3722:4432   */\n      swap4\n      swap3\n      pop\n      pop\n      pop\n      jump\t// out\n        /* \"#utility.yul\":4455:4825   */\n    tag_83:\n        /* \"#utility.yul\":4526:4531   */\n      0x00\n        /* \"#utility.yul\":4575:4578   */\n      dup3\n        /* \"#utility.yul\":4568:4572   */\n      0x1f\n        /* \"#utility.yul\":4560:4566   */\n      dup4\n        /* \"#utility.yul\":4556:4573   */\n      add\n        /* \"#utility.yul\":4552:4579   */\n      slt\n        /* \"#utility.yul\":4542:4664   */\n      tag_154\n      jumpi\n        /* \"#utility.yul\":4583:4662   */\n      tag_155\n      tag_64\n      jump\t// in\n    tag_155:\n        /* \"#utility.yul\":4542:4664   */\n    tag_154:\n        /* \"#utility.yul\":4700:4706   */\n      dup2\n        /* \"#utility.yul\":4687:4707   */\n      calldataload\n        /* \"#utility.yul\":4725:4819   */\n      tag_156\n        /* \"#utility.yul\":4815:4818   */\n      dup5\n        /* \"#utility.yul\":4807:4813   */\n      dup3\n        /* \"#utility.yul\":4800:4804   */\n      0x20\n        /* \"#utility.yul\":4792:4798   */\n      dup7\n        /* \"#utility.yul\":4788:4805   */\n      add\n        /* \"#utility.yul\":4725:4819   */\n      tag_82\n      jump\t// in\n    tag_156:\n        /* \"#utility.yul\":4716:4819   */\n      swap2\n      pop\n        /* \"#utility.yul\":4532:4825   */\n      pop\n        /* \"#utility.yul\":4455:4825   */\n      swap3\n      swap2\n      pop\n      pop\n      jump\t// out\n        /* \"#utility.yul\":4831:5986   */\n    tag_9:\n        /* \"#utility.yul\":4952:4958   */\n      0x00\n        /* \"#utility.yul\":4960:4966   */\n      dup1\n        /* \"#utility.yul\":4968:4974   */\n      0x00\n        /* \"#utility.yul\":4976:4982   */\n      dup1\n        /* \"#utility.yul\":5025:5028   */\n      0x80\n        /* \"#utility.yul\":5013:5022   */\n      dup6\n        /* \"#utility.yul\":5004:5011   */\n      dup8\n        /* \"#utility.yul\":5000:5023   */\n      sub\n        /* \"#utility.yul\":4996:5029   */\n      slt\n        /* \"#utility.yul\":4993:5113   */\n      iszero\n      tag_158\n      jumpi\n        /* \"#utility.yul\":5032:5111   */\n      tag_159\n      tag_62\n      jump\t// in\n    tag_159:\n        /* \"#utility.yul\":4993:5113   */\n    tag_158:\n        /* \"#utility.yul\":5180:5181   */\n      0x00\n        /* \"#utility.yul\":5169:5178   */\n      dup6\n        /* \"#utility.yul\":5165:5182   */\n      add\n        /* \"#utility.yul\":5152:5183   */\n      calldataload\n        /* \"#utility.yul\":5210:5228   */\n      0xffffffffffffffff\n        /* \"#utility.yul\":5202:5208   */\n      dup2\n        /* \"#utility.yul\":5199:5229   */\n      gt\n        /* \"#utility.yul\":5196:5313   */\n      iszero\n      tag_160\n      jumpi\n        /* \"#utility.yul\":5232:5311   */\n      tag_161\n      tag_63\n      jump\t// in\n    tag_161:\n        /* \"#utility.yul\":5196:5313   */\n    tag_160:\n        /* \"#utility.yul\":5337:5400   */\n      tag_162\n        /* \"#utility.yul\":5392:5399   */\n      dup8\n        /* \"#utility.yul\":5383:5389   */\n      dup3\n        /* \"#utility.yul\":5372:5381   */\n      dup9\n        /* \"#utility.yul\":5368:5390   */\n      add\n        /* \"#utility.yul\":5337:5400   */\n      tag_73\n      jump\t// in\n    tag_162:\n        /* \"#utility.yul\":5327:5400   */\n      swap5\n      pop\n        /* \"#utility.yul\":5123:5410   */\n      pop\n        /* \"#utility.yul\":5449:5451   */\n      0x20\n        /* \"#utility.yul\":5475:5528   */\n      tag_163\n        /* \"#utility.yul\":5520:5527   */\n      dup8\n        /* \"#utility.yul\":5511:5517   */\n      dup3\n        /* \"#utility.yul\":5500:5509   */\n      dup9\n        /* \"#utility.yul\":5496:5518   */\n      add\n        /* \"#utility.yul\":5475:5528   */\n      tag_76\n      jump\t// in\n    tag_163:\n        /* \"#utility.yul\":5465:5528   */\n      swap4\n      pop\n        /* \"#utility.yul\":5420:5538   */\n      pop\n        /* \"#utility.yul\":5577:5579   */\n      0x40\n        /* \"#utility.yul\":5603:5656   */\n      tag_164\n        /* \"#utility.yul\":5648:5655   */\n      dup8\n        /* \"#utility.yul\":5639:5645   */\n      dup3\n        /* \"#utility.yul\":5628:5637   */\n      dup9\n        /* \"#utility.yul\":5624:5646   */\n      add\n        /* \"#utility.yul\":5603:5656   */\n      tag_79\n      jump\t// in\n    tag_164:\n        /* \"#utility.yul\":5593:5656   */\n      swap3\n      pop\n        /* \"#utility.yul\":5548:5666   */\n      pop\n        /* \"#utility.yul\":5733:5735   */\n      0x60\n        /* \"#utility.yul\":5722:5731   */\n      dup6\n        /* \"#utility.yul\":5718:5736   */\n      add\n        /* \"#utility.yul\":5705:5737   */\n      calldataload\n        /* \"#utility.yul\":5764:5782   */\n      0xffffffffffffffff\n        /* \"#utility.yul\":5756:5762   */\n      dup2\n        /* \"#utility.yul\":5753:5783   */\n      gt\n        /* \"#utility.yul\":5750:5867   */\n      iszero\n      tag_165\n      jumpi\n        /* \"#utility.yul\":5786:5865   */\n      tag_166\n      tag_63\n      jump\t// in\n    tag_166:\n        /* \"#utility.yul\":5750:5867   */\n    tag_165:\n        /* \"#utility.yul\":5891:5969   */\n      tag_167\n        /* \"#utility.yul\":5961:5968   */\n      dup8\n        /* \"#utility.yul\":5952:5958   */\n      dup3\n        /* \"#utility.yul\":5941:5950   */\n      dup9\n        /* \"#utility.yul\":5937:5959   */\n      add\n        /* \"#utility.yul\":5891:5969   */\n      tag_83\n      jump\t// in\n    tag_167:\n        /* \"#utility.yul\":5881:5969   */\n      swap2\n      pop\n        /* \"#utility.yul\":5676:5979   */\n      pop\n        /* \"#utility.yul\":4831:5986   */\n      swap3\n      swap6\n      swap2\n      swap5\n      pop\n      swap3\n      pop\n      jump\t// out\n        /* \"#utility.yul\":5992:6082   */\n    tag_84:\n        /* \"#utility.yul\":6026:6033   */\n      0x00\n        /* \"#utility.yul\":6069:6074   */\n      dup2\n        /* \"#utility.yul\":6062:6075   */\n      iszero\n        /* \"#utility.yul\":6055:6076   */\n      iszero\n        /* \"#utility.yul\":6044:6076   */\n      swap1\n      pop\n        /* \"#utility.yul\":5992:6082   */\n      swap2\n      swap1\n      pop\n      jump\t// out\n        /* \"#utility.yul\":6088:6197   */\n    tag_85:\n        /* \"#utility.yul\":6169:6190   */\n      tag_170\n        /* \"#utility.yul\":6184:6189   */\n      dup2\n        /* \"#utility.yul\":6169:6190   */\n      tag_84\n      jump\t// in\n    tag_170:\n        /* \"#utility.yul\":6164:6167   */\n      dup3\n        /* \"#utility.yul\":6157:6191   */\n      mstore\n        /* \"#utility.yul\":6088:6197   */\n      pop\n      pop\n      jump\t// out\n        /* \"#utility.yul\":6203:6413   */\n    tag_12:\n        /* \"#utility.yul\":6290:6294   */\n      0x00\n        /* \"#utility.yul\":6328:6330   */\n      0x20\n        /* \"#utility.yul\":6317:6326   */\n      dup3\n        /* \"#utility.yul\":6313:6331   */\n      add\n        /* \"#utility.yul\":6305:6331   */\n      swap1\n      pop\n        /* \"#utility.yul\":6341:6406   */\n      tag_172\n        /* \"#utility.yul\":6403:6404   */\n      0x00\n        /* \"#utility.yul\":6392:6401   */\n      dup4\n        /* \"#utility.yul\":6388:6405   */\n      add\n        /* \"#utility.yul\":6379:6385   */\n      dup5\n        /* \"#utility.yul\":6341:6406   */\n      tag_85\n      jump\t// in\n    tag_172:\n        /* \"#utility.yul\":6203:6413   */\n      swap3\n      swap2\n      pop\n      pop\n      jump\t// out\n        /* \"#utility.yul\":6419:6748   */\n    tag_15:\n        /* \"#utility.yul\":6478:6484   */\n      0x00\n        /* \"#utility.yul\":6527:6529   */\n      0x20\n        /* \"#utility.yul\":6515:6524   */\n      dup3\n        /* \"#utility.yul\":6506:6513   */\n      dup5\n        /* \"#utility.yul\":6502:6525   */\n      sub\n        /* \"#utility.yul\":6498:6530   */\n      slt\n        /* \"#utility.yul\":6495:6614   */\n      iszero\n      tag_174\n      jumpi\n        /* \"#utility.yul\":6533:6612   */\n      tag_175\n      tag_62\n      jump\t// in\n    tag_175:\n        /* \"#utility.yul\":6495:6614   */\n    tag_174:\n        /* \"#utility.yul\":6653:6654   */\n      0x00\n        /* \"#utility.yul\":6678:6731   */\n      tag_176\n        /* \"#utility.yul\":6723:6730   */\n      dup5\n        /* \"#utility.yul\":6714:6720   */\n      dup3\n        /* \"#utility.yul\":6703:6712   */\n      dup6\n        /* \"#utility.yul\":6699:6721   */\n      add\n        /* \"#utility.yul\":6678:6731   */\n      tag_76\n      jump\t// in\n    tag_176:\n        /* \"#utility.yul\":6668:6731   */\n      swap2\n      pop\n        /* \"#utility.yul\":6624:6741   */\n      pop\n        /* \"#utility.yul\":6419:6748   */\n      swap3\n      swap2\n      pop\n      pop\n      jump\t// out\n        /* \"#utility.yul\":6754:6872   */\n    tag_86:\n        /* \"#utility.yul\":6841:6865   */\n      tag_178\n        /* \"#utility.yul\":6859:6864   */\n      dup2\n        /* \"#utility.yul\":6841:6865   */\n      tag_77\n      jump\t// in\n    tag_178:\n        /* \"#utility.yul\":6836:6839   */\n      dup3\n        /* \"#utility.yul\":6829:6866   */\n      mstore\n        /* \"#utility.yul\":6754:6872   */\n      pop\n      pop\n      jump\t// out\n        /* \"#utility.yul\":6878:7100   */\n    tag_18:\n        /* \"#utility.yul\":6971:6975   */\n      0x00\n        /* \"#utility.yul\":7009:7011   */\n      0x20\n        /* \"#utility.yul\":6998:7007   */\n      dup3\n        /* \"#utility.yul\":6994:7012   */\n      add\n        /* \"#utility.yul\":6986:7012   */\n      swap1\n      pop\n        /* \"#utility.yul\":7022:7093   */\n      tag_180\n        /* \"#utility.yul\":7090:7091   */\n      0x00\n        /* \"#utility.yul\":7079:7088   */\n      dup4\n        /* \"#utility.yul\":7075:7092   */\n      add\n        /* \"#utility.yul\":7066:7072   */\n      dup5\n        /* \"#utility.yul\":7022:7093   */\n      tag_86\n      jump\t// in\n    tag_180:\n        /* \"#utility.yul\":6878:7100   */\n      swap3\n      swap2\n      pop\n      pop\n      jump\t// out\n        /* \"#utility.yul\":7106:7615   */\n    tag_21:\n        /* \"#utility.yul\":7175:7181   */\n      0x00\n        /* \"#utility.yul\":7224:7226   */\n      0x20\n        /* \"#utility.yul\":7212:7221   */\n      dup3\n        /* \"#utility.yul\":7203:7210   */\n      dup5\n        /* \"#utility.yul\":7199:7222   */\n      sub\n        /* \"#utility.yul\":7195:7227   */\n      slt\n        /* \"#utility.yul\":7192:7311   */\n      iszero\n      tag_182\n      jumpi\n        /* \"#utility.yul\":7230:7309   */\n      tag_183\n      tag_62\n      jump\t// in\n    tag_183:\n        /* \"#utility.yul\":7192:7311   */\n    tag_182:\n        /* \"#utility.yul\":7378:7379   */\n      0x00\n        /* \"#utility.yul\":7367:7376   */\n      dup3\n        /* \"#utility.yul\":7363:7380   */\n      add\n        /* \"#utility.yul\":7350:7381   */\n      calldataload\n        /* \"#utility.yul\":7408:7426   */\n      0xffffffffffffffff\n        /* \"#utility.yul\":7400:7406   */\n      dup2\n        /* \"#utility.yul\":7397:7427   */\n      gt\n        /* \"#utility.yul\":7394:7511   */\n      iszero\n      tag_184\n      jumpi\n        /* \"#utility.yul\":7430:7509   */\n      tag_185\n      tag_63\n      jump\t// in\n    tag_185:\n        /* \"#utility.yul\":7394:7511   */\n    tag_184:\n        /* \"#utility.yul\":7535:7598   */\n      tag_186\n        /* \"#utility.yul\":7590:7597   */\n      dup5\n        /* \"#utility.yul\":7581:7587   */\n      dup3\n        /* \"#utility.yul\":7570:7579   */\n      dup6\n        /* \"#utility.yul\":7566:7588   */\n      add\n        /* \"#utility.yul\":7535:7598   */\n      tag_73\n      jump\t// in\n    tag_186:\n        /* \"#utility.yul\":7525:7598   */\n      swap2\n      pop\n        /* \"#utility.yul\":7321:7608   */\n      pop\n        /* \"#utility.yul\":7106:7615   */\n      swap3\n      swap2\n      pop\n      pop\n      jump\t// out\n        /* \"#utility.yul\":7621:7720   */\n    tag_87:\n        /* \"#utility.yul\":7673:7679   */\n      0x00\n        /* \"#utility.yul\":7707:7712   */\n      dup2\n        /* \"#utility.yul\":7701:7713   */\n      mload\n        /* \"#utility.yul\":7691:7713   */\n      swap1\n      pop\n        /* \"#utility.yul\":7621:7720   */\n      swap2\n      swap1\n      pop\n      jump\t// out\n        /* \"#utility.yul\":7726:7895   */\n    tag_88:\n        /* \"#utility.yul\":7810:7821   */\n      0x00\n        /* \"#utility.yul\":7844:7850   */\n      dup3\n        /* \"#utility.yul\":7839:7842   */\n      dup3\n        /* \"#utility.yul\":7832:7851   */\n      mstore\n        /* \"#utility.yul\":7884:7888   */\n      0x20\n        /* \"#utility.yul\":7879:7882   */\n      dup3\n        /* \"#utility.yul\":7875:7889   */\n      add\n        /* \"#utility.yul\":7860:7889   */\n      swap1\n      pop\n        /* \"#utility.yul\":7726:7895   */\n      swap3\n      swap2\n      pop\n      pop\n      jump\t// out\n        /* \"#utility.yul\":7901:8147   */\n    tag_89:\n        /* \"#utility.yul\":7982:7983   */\n      0x00\n        /* \"#utility.yul\":7992:8105   */\n    tag_190:\n        /* \"#utility.yul\":8006:8012   */\n      dup4\n        /* \"#utility.yul\":8003:8004   */\n      dup2\n        /* \"#utility.yul\":8000:8013   */\n      lt\n        /* \"#utility.yul\":7992:8105   */\n      iszero\n      tag_192\n      jumpi\n        /* \"#utility.yul\":8091:8092   */\n      dup1\n        /* \"#utility.yul\":8086:8089   */\n      dup3\n        /* \"#utility.yul\":8082:8093   */\n      add\n        /* \"#utility.yul\":8076:8094   */\n      mload\n        /* \"#utility.yul\":8072:8073   */\n      dup2\n        /* \"#utility.yul\":8067:8070   */\n      dup5\n        /* \"#utility.yul\":8063:8074   */\n      add\n        /* \"#utility.yul\":8056:8095   */\n      mstore\n        /* \"#utility.yul\":8028:8030   */\n      0x20\n        /* \"#utility.yul\":8025:8026   */\n      dup2\n        /* \"#utility.yul\":8021:8031   */\n      add\n        /* \"#utility.yul\":8016:8031   */\n      swap1\n      pop\n        /* \"#utility.yul\":7992:8105   */\n      jump(tag_190)\n    tag_192:\n        /* \"#utility.yul\":8139:8140   */\n      0x00\n        /* \"#utility.yul\":8130:8136   */\n      dup5\n        /* \"#utility.yul\":8125:8128   */\n      dup5\n        /* \"#utility.yul\":8121:8137   */\n      add\n        /* \"#utility.yul\":8114:8141   */\n      mstore\n        /* \"#utility.yul\":7963:8147   */\n      pop\n        /* \"#utility.yul\":7901:8147   */\n      pop\n      pop\n      pop\n      jump\t// out\n        /* \"#utility.yul\":8153:8530   */\n    tag_90:\n        /* \"#utility.yul\":8241:8244   */\n      0x00\n        /* \"#utility.yul\":8269:8308   */\n      tag_194\n        /* \"#utility.yul\":8302:8307   */\n      dup3\n        /* \"#utility.yul\":8269:8308   */\n      tag_87\n      jump\t// in\n    tag_194:\n        /* \"#utility.yul\":8324:8395   */\n      tag_195\n        /* \"#utility.yul\":8388:8394   */\n      dup2\n        /* \"#utility.yul\":8383:8386   */\n      dup6\n        /* \"#utility.yul\":8324:8395   */\n      tag_88\n      jump\t// in\n    tag_195:\n        /* \"#utility.yul\":8317:8395   */\n      swap4\n      pop\n        /* \"#utility.yul\":8404:8469   */\n      tag_196\n        /* \"#utility.yul\":8462:8468   */\n      dup2\n        /* \"#utility.yul\":8457:8460   */\n      dup6\n        /* \"#utility.yul\":8450:8454   */\n      0x20\n        /* \"#utility.yul\":8443:8448   */\n      dup7\n        /* \"#utility.yul\":8439:8455   */\n      add\n        /* \"#utility.yul\":8404:8469   */\n      tag_89\n      jump\t// in\n    tag_196:\n        /* \"#utility.yul\":8494:8523   */\n      tag_197\n        /* \"#utility.yul\":8516:8522   */\n      dup2\n        /* \"#utility.yul\":8494:8523   */\n      tag_66\n      jump\t// in\n    tag_197:\n        /* \"#utility.yul\":8489:8492   */\n      dup5\n        /* \"#utility.yul\":8485:8524   */\n      add\n        /* \"#utility.yul\":8478:8524   */\n      swap2\n      pop\n        /* \"#utility.yul\":8245:8530   */\n      pop\n        /* \"#utility.yul\":8153:8530   */\n      swap3\n      swap2\n      pop\n      pop\n      jump\t// out\n        /* \"#utility.yul\":8536:8849   */\n    tag_28:\n        /* \"#utility.yul\":8649:8653   */\n      0x00\n        /* \"#utility.yul\":8687:8689   */\n      0x20\n        /* \"#utility.yul\":8676:8685   */\n      dup3\n        /* \"#utility.yul\":8672:8690   */\n      add\n        /* \"#utility.yul\":8664:8690   */\n      swap1\n      pop\n        /* \"#utility.yul\":8736:8745   */\n      dup2\n        /* \"#utility.yul\":8730:8734   */\n      dup2\n        /* \"#utility.yul\":8726:8746   */\n      sub\n        /* \"#utility.yul\":8722:8723   */\n      0x00\n        /* \"#utility.yul\":8711:8720   */\n      dup4\n        /* \"#utility.yul\":8707:8724   */\n      add\n        /* \"#utility.yul\":8700:8747   */\n      mstore\n        /* \"#utility.yul\":8764:8842   */\n      tag_199\n        /* \"#utility.yul\":8837:8841   */\n      dup2\n        /* \"#utility.yul\":8828:8834   */\n      dup5\n        /* \"#utility.yul\":8764:8842   */\n      tag_90\n      jump\t// in\n    tag_199:\n        /* \"#utility.yul\":8756:8842   */\n      swap1\n      pop\n        /* \"#utility.yul\":8536:8849   */\n      swap3\n      swap2\n      pop\n      pop\n      jump\t// out\n        /* \"#utility.yul\":8855:9003   */\n    tag_91:\n        /* \"#utility.yul\":8957:8968   */\n      0x00\n        /* \"#utility.yul\":8994:8997   */\n      dup2\n        /* \"#utility.yul\":8979:8997   */\n      swap1\n      pop\n        /* \"#utility.yul\":8855:9003   */\n      swap3\n      swap2\n      pop\n      pop\n      jump\t// out\n        /* \"#utility.yul\":9009:9399   */\n    tag_92:\n        /* \"#utility.yul\":9115:9118   */\n      0x00\n        /* \"#utility.yul\":9143:9182   */\n      tag_202\n        /* \"#utility.yul\":9176:9181   */\n      dup3\n        /* \"#utility.yul\":9143:9182   */\n      tag_87\n      jump\t// in\n    tag_202:\n        /* \"#utility.yul\":9198:9287   */\n      tag_203\n        /* \"#utility.yul\":9280:9286   */\n      dup2\n        /* \"#utility.yul\":9275:9278   */\n      dup6\n        /* \"#utility.yul\":9198:9287   */\n      tag_91\n      jump\t// in\n    tag_203:\n        /* \"#utility.yul\":9191:9287   */\n      swap4\n      pop\n        /* \"#utility.yul\":9296:9361   */\n      tag_204\n        /* \"#utility.yul\":9354:9360   */\n      dup2\n        /* \"#utility.yul\":9349:9352   */\n      dup6\n        /* \"#utility.yul\":9342:9346   */\n      0x20\n        /* \"#utility.yul\":9335:9340   */\n      dup7\n        /* \"#utility.yul\":9331:9347   */\n      add\n        /* \"#utility.yul\":9296:9361   */\n      tag_89\n      jump\t// in\n    tag_204:\n        /* \"#utility.yul\":9386:9392   */\n      dup1\n        /* \"#utility.yul\":9381:9384   */\n      dup5\n        /* \"#utility.yul\":9377:9393   */\n      add\n        /* \"#utility.yul\":9370:9393   */\n      swap2\n      pop\n        /* \"#utility.yul\":9119:9399   */\n      pop\n        /* \"#utility.yul\":9009:9399   */\n      swap3\n      swap2\n      pop\n      pop\n      jump\t// out\n        /* \"#utility.yul\":9405:9680   */\n    tag_31:\n        /* \"#utility.yul\":9537:9540   */\n      0x00\n        /* \"#utility.yul\":9559:9654   */\n      tag_206\n        /* \"#utility.yul\":9650:9653   */\n      dup3\n        /* \"#utility.yul\":9641:9647   */\n      dup5\n        /* \"#utility.yul\":9559:9654   */\n      tag_92\n      jump\t// in\n    tag_206:\n        /* \"#utility.yul\":9552:9654   */\n      swap2\n      pop\n        /* \"#utility.yul\":9671:9674   */\n      dup2\n        /* \"#utility.yul\":9664:9674   */\n      swap1\n      pop\n        /* \"#utility.yul\":9405:9680   */\n      swap3\n      swap2\n      pop\n      pop\n      jump\t// out\n        /* \"#utility.yul\":9686:9866   */\n    tag_37:\n        /* \"#utility.yul\":9734:9811   */\n      0x4e487b7100000000000000000000000000000000000000000000000000000000\n        /* \"#utility.yul\":9731:9732   */\n      0x00\n        /* \"#utility.yul\":9724:9812   */\n      mstore\n        /* \"#utility.yul\":9831:9835   */\n      0x32\n        /* \"#utility.yul\":9828:9829   */\n      0x04\n        /* \"#utility.yul\":9821:9836   */\n      mstore\n        /* \"#utility.yul\":9855:9859   */\n      0x24\n        /* \"#utility.yul\":9852:9853   */\n      0x00\n        /* \"#utility.yul\":9845:9860   */\n      revert\n        /* \"#utility.yul\":9872:10052   */\n    tag_93:\n        /* \"#utility.yul\":9920:9997   */\n      0x4e487b7100000000000000000000000000000000000000000000000000000000\n        /* \"#utility.yul\":9917:9918   */\n      0x00\n        /* \"#utility.yul\":9910:9998   */\n      mstore\n        /* \"#utility.yul\":10017:10021   */\n      0x12\n        /* \"#utility.yul\":10014:10015   */\n      0x04\n        /* \"#utility.yul\":10007:10022   */\n      mstore\n        /* \"#utility.yul\":10041:10045   */\n      0x24\n        /* \"#utility.yul\":10038:10039   */\n      0x00\n        /* \"#utility.yul\":10031:10046   */\n      revert\n        /* \"#utility.yul\":10058:10234   */\n    tag_39:\n        /* \"#utility.yul\":10090:10091   */\n      0x00\n        /* \"#utility.yul\":10107:10127   */\n      tag_210\n        /* \"#utility.yul\":10125:10126   */\n      dup3\n        /* \"#utility.yul\":10107:10127   */\n      tag_74\n      jump\t// in\n    tag_210:\n        /* \"#utility.yul\":10102:10127   */\n      swap2\n      pop\n        /* \"#utility.yul\":10141:10161   */\n      tag_211\n        /* \"#utility.yul\":10159:10160   */\n      dup4\n        /* \"#utility.yul\":10141:10161   */\n      tag_74\n      jump\t// in\n    tag_211:\n        /* \"#utility.yul\":10136:10161   */\n      swap3\n      pop\n        /* \"#utility.yul\":10180:10181   */\n      dup3\n        /* \"#utility.yul\":10170:10205   */\n      tag_212\n      jumpi\n        /* \"#utility.yul\":10185:10203   */\n      tag_213\n      tag_93\n      jump\t// in\n    tag_213:\n        /* \"#utility.yul\":10170:10205   */\n    tag_212:\n        /* \"#utility.yul\":10226:10227   */\n      dup3\n        /* \"#utility.yul\":10223:10224   */\n      dup3\n        /* \"#utility.yul\":10219:10228   */\n      mod\n        /* \"#utility.yul\":10214:10228   */\n      swap1\n      pop\n        /* \"#utility.yul\":10058:10234   */\n      swap3\n      swap2\n      pop\n      pop\n      jump\t// out\n        /* \"#utility.yul\":10240:10319   */\n    tag_94:\n        /* \"#utility.yul\":10279:10286   */\n      0x00\n        /* \"#utility.yul\":10308:10313   */\n      dup2\n        /* \"#utility.yul\":10297:10313   */\n      swap1\n      pop\n        /* \"#utility.yul\":10240:10319   */\n      swap2\n      swap1\n      pop\n      jump\t// out\n        /* \"#utility.yul\":10325:10482   */\n    tag_95:\n        /* \"#utility.yul\":10430:10475   */\n      tag_216\n        /* \"#utility.yul\":10450:10474   */\n      tag_217\n        /* \"#utility.yul\":10468:10473   */\n      dup3\n        /* \"#utility.yul\":10450:10474   */\n      tag_77\n      jump\t// in\n    tag_217:\n        /* \"#utility.yul\":10430:10475   */\n      tag_94\n      jump\t// in\n    tag_216:\n        /* \"#utility.yul\":10425:10428   */\n      dup3\n        /* \"#utility.yul\":10418:10476   */\n      mstore\n        /* \"#utility.yul\":10325:10482   */\n      pop\n      pop\n      jump\t// out\n        /* \"#utility.yul\":10488:10885   */\n    tag_42:\n        /* \"#utility.yul\":10628:10631   */\n      0x00\n        /* \"#utility.yul\":10643:10718   */\n      tag_219\n        /* \"#utility.yul\":10714:10717   */\n      dup3\n        /* \"#utility.yul\":10705:10711   */\n      dup6\n        /* \"#utility.yul\":10643:10718   */\n      tag_95\n      jump\t// in\n    tag_219:\n        /* \"#utility.yul\":10743:10745   */\n      0x20\n        /* \"#utility.yul\":10738:10741   */\n      dup3\n        /* \"#utility.yul\":10734:10746   */\n      add\n        /* \"#utility.yul\":10727:10746   */\n      swap2\n      pop\n        /* \"#utility.yul\":10756:10831   */\n      tag_220\n        /* \"#utility.yul\":10827:10830   */\n      dup3\n        /* \"#utility.yul\":10818:10824   */\n      dup5\n        /* \"#utility.yul\":10756:10831   */\n      tag_95\n      jump\t// in\n    tag_220:\n        /* \"#utility.yul\":10856:10858   */\n      0x20\n        /* \"#utility.yul\":10851:10854   */\n      dup3\n        /* \"#utility.yul\":10847:10859   */\n      add\n        /* \"#utility.yul\":10840:10859   */\n      swap2\n      pop\n        /* \"#utility.yul\":10876:10879   */\n      dup2\n        /* \"#utility.yul\":10869:10879   */\n      swap1\n      pop\n        /* \"#utility.yul\":10488:10885   */\n      swap4\n      swap3\n      pop\n      pop\n      pop\n      jump\t// out\n        /* \"#utility.yul\":10891:11071   */\n    tag_96:\n        /* \"#utility.yul\":10939:11016   */\n      0x4e487b7100000000000000000000000000000000000000000000000000000000\n        /* \"#utility.yul\":10936:10937   */\n      0x00\n        /* \"#utility.yul\":10929:11017   */\n      mstore\n        /* \"#utility.yul\":11036:11040   */\n      0x11\n        /* \"#utility.yul\":11033:11034   */\n      0x04\n        /* \"#utility.yul\":11026:11041   */\n      mstore\n        /* \"#utility.yul\":11060:11064   */\n      0x24\n        /* \"#utility.yul\":11057:11058   */\n      0x00\n        /* \"#utility.yul\":11050:11065   */\n      revert\n        /* \"#utility.yul\":11077:11262   */\n    tag_46:\n        /* \"#utility.yul\":11117:11118   */\n      0x00\n        /* \"#utility.yul\":11134:11154   */\n      tag_223\n        /* \"#utility.yul\":11152:11153   */\n      dup3\n        /* \"#utility.yul\":11134:11154   */\n      tag_74\n      jump\t// in\n    tag_223:\n        /* \"#utility.yul\":11129:11154   */\n      swap2\n      pop\n        /* \"#utility.yul\":11168:11188   */\n      tag_224\n        /* \"#utility.yul\":11186:11187   */\n      dup4\n        /* \"#utility.yul\":11168:11188   */\n      tag_74\n      jump\t// in\n    tag_224:\n        /* \"#utility.yul\":11163:11188   */\n      swap3\n      pop\n        /* \"#utility.yul\":11207:11208   */\n      dup3\n        /* \"#utility.yul\":11197:11232   */\n      tag_225\n      jumpi\n        /* \"#utility.yul\":11212:11230   */\n      tag_226\n      tag_93\n      jump\t// in\n    tag_226:\n        /* \"#utility.yul\":11197:11232   */\n    tag_225:\n        /* \"#utility.yul\":11254:11255   */\n      dup3\n        /* \"#utility.yul\":11251:11252   */\n      dup3\n        /* \"#utility.yul\":11247:11256   */\n      div\n        /* \"#utility.yul\":11242:11256   */\n      swap1\n      pop\n        /* \"#utility.yul\":11077:11262   */\n      swap3\n      swap2\n      pop\n      pop\n      jump\t// out\n        /* \"#utility.yul\":11268:11501   */\n    tag_48:\n        /* \"#utility.yul\":11307:11310   */\n      0x00\n        /* \"#utility.yul\":11330:11354   */\n      tag_228\n        /* \"#utility.yul\":11348:11353   */\n      dup3\n        /* \"#utility.yul\":11330:11354   */\n      tag_74\n      jump\t// in\n    tag_228:\n        /* \"#utility.yul\":11321:11354   */\n      swap2\n      pop\n        /* \"#utility.yul\":11376:11442   */\n      0xffffffffffffffffffffffffffffffffffffffffffffffffffffffffffffffff\n        /* \"#utility.yul\":11369:11374   */\n      dup3\n        /* \"#utility.yul\":11366:11443   */\n      sub\n        /* \"#utility.yul\":11363:11466   */\n      tag_229\n      jumpi\n        /* \"#utility.yul\":11446:11464   */\n      tag_230\n      tag_96\n      jump\t// in\n    tag_230:\n        /* \"#utility.yul\":11363:11466   */\n    tag_229:\n        /* \"#utility.yul\":11493:11494   */\n      0x01\n        /* \"#utility.yul\":11486:11491   */\n      dup3\n        /* \"#utility.yul\":11482:11495   */\n      add\n        /* \"#utility.yul\":11475:11495   */\n      swap1\n      pop\n        /* \"#utility.yul\":11268:11501   */\n      swap2\n      swap1\n      pop\n      jump\t// out\n        /* \"#utility.yul\":11507:11687   */\n    tag_97:\n        /* \"#utility.yul\":11555:11632   */\n      0x4e487b7100000000000000000000000000000000000000000000000000000000\n        /* \"#utility.yul\":11552:11553   */\n      0x00\n        /* \"#utility.yul\":11545:11633   */\n      mstore\n        /* \"#utility.yul\":11652:11656   */\n      0x22\n        /* \"#utility.yul\":11649:11650   */\n      0x04\n        /* \"#utility.yul\":11642:11657   */\n      mstore\n        /* \"#utility.yul\":11676:11680   */\n      0x24\n        /* \"#utility.yul\":11673:11674   */\n      0x00\n        /* \"#utility.yul\":11666:11681   */\n      revert\n        /* \"#utility.yul\":11693:12013   */\n    tag_56:\n        /* \"#utility.yul\":11737:11743   */\n      0x00\n        /* \"#utility.yul\":11774:11775   */\n      0x02\n        /* \"#utility.yul\":11768:11772   */\n      dup3\n        /* \"#utility.yul\":11764:11776   */\n      div\n        /* \"#utility.yul\":11754:11776   */\n      swap1\n      pop\n        /* \"#utility.yul\":11821:11822   */\n      0x01\n        /* \"#utility.yul\":11815:11819   */\n      dup3\n        /* \"#utility.yul\":11811:11823   */\n      and\n        /* \"#utility.yul\":11842:11860   */\n      dup1\n        /* \"#utility.yul\":11832:11913   */\n      tag_233\n      jumpi\n        /* \"#utility.yul\":11898:11902   */\n      0x7f\n        /* \"#utility.yul\":11890:11896   */\n      dup3\n        /* \"#utility.yul\":11886:11903   */\n      and\n        /* \"#utility.yul\":11876:11903   */\n      swap2\n      pop\n        /* \"#utility.yul\":11832:11913   */\n    tag_233:\n        /* \"#utility.yul\":11960:11962   */\n      0x20\n        /* \"#utility.yul\":11952:11958   */\n      dup3\n        /* \"#utility.yul\":11949:11963   */\n      lt\n        /* \"#utility.yul\":11929:11947   */\n      dup2\n        /* \"#utility.yul\":11926:11964   */\n      sub\n        /* \"#utility.yul\":11923:12007   */\n      tag_234\n      jumpi\n        /* \"#utility.yul\":11979:11997   */\n      tag_235\n      tag_97\n      jump\t// in\n    tag_235:\n        /* \"#utility.yul\":11923:12007   */\n    tag_234:\n        /* \"#utility.yul\":11744:12013   */\n      pop\n        /* \"#utility.yul\":11693:12013   */\n      swap2\n      swap1\n      pop\n      jump\t// out\n\n    auxdata: 0xa2646970667358221220111ae8cbfe50934c293ef5aa657500723f0cac976e95affed8094520d0a89bf364736f6c63430008110033\n}\n",
				"bytecode": {
					"linkReferences": {},
					"object": "608060405260405180608001604052806040518060400160405280601481526020017f5458313a20536865726c6f6b202d3e204a6f686e00000000000000000000000081525081526020016040518060400160405280601481526020017f5458323a204a6f686e202d3e20536865726c6f6b00000000000000000000000081525081526020016040518060400160405280601181526020017f5458333a204a6f686e202d3e204d61727900000000000000000000000000000081525081526020016040518060400160405280601481526020017f5458343a204d617279202d3e20536865726c6f6b00000000000000000000000081525081525060019060046200010b929190620002d6565b503480156200011957600080fd5b5060005b6004811015620001a55760006001826004811062000140576200013f620003b6565b5b01604051602001620001539190620004f8565b60405160208183030381529060405280519060200120908060018154018082558091505060019003906000526020600020016000909190919091505580806200019c906200054a565b9150506200011d565b5060006004905060005b6000821115620002ce5760005b600183620001cb919062000597565b811015620002a6576000808284620001e49190620005d2565b81548110620001f857620001f7620003b6565b5b9060005260206000200154600060018486620002159190620005d2565b620002219190620005d2565b81548110620002355762000234620003b6565b5b9060005260206000200154604051602001620002539291906200063c565b6040516020818303038152906040528051906020012090806001815401808255809150506001900390600052602060002001600090919091909150556002816200029e9190620005d2565b9050620001bc565b508181620002b59190620005d2565b9050600282620002c691906200069b565b9150620001af565b5050620009b1565b826004810192821562000316579160200282015b8281111562000315578251829081620003049190620008ca565b5091602001919060010190620002ea565b5b50905062000325919062000329565b5090565b5b808211156200034d576000818162000343919062000351565b506001016200032a565b5090565b5080546200035f9062000414565b6000825580601f1062000373575062000394565b601f01602090049060005260206000209081019062000393919062000397565b5b50565b5b80821115620003b257600081600090555060010162000398565b5090565b7f4e487b7100000000000000000000000000000000000000000000000000000000600052603260045260246000fd5b7f4e487b7100000000000000000000000000000000000000000000000000000000600052602260045260246000fd5b600060028204905060018216806200042d57607f821691505b602082108103620004435762000442620003e5565b5b50919050565b600081905092915050565b60008190508160005260206000209050919050565b60008154620004788162000414565b62000484818662000449565b94506001821660008114620004a25760018114620004b857620004ef565b60ff1983168652811515820286019350620004ef565b620004c38562000454565b60005b83811015620004e757815481890152600182019150602081019050620004c6565b838801955050505b50505092915050565b600062000506828462000469565b915081905092915050565b7f4e487b7100000000000000000000000000000000000000000000000000000000600052601160045260246000fd5b6000819050919050565b6000620005578262000540565b91507fffffffffffffffffffffffffffffffffffffffffffffffffffffffffffffffff82036200058c576200058b62000511565b5b600182019050919050565b6000620005a48262000540565b9150620005b18362000540565b9250828203905081811115620005cc57620005cb62000511565b5b92915050565b6000620005df8262000540565b9150620005ec8362000540565b925082820190508082111562000607576200060662000511565b5b92915050565b6000819050919050565b6000819050919050565b6200063662000630826200060d565b62000617565b82525050565b60006200064a828562000621565b6020820191506200065c828462000621565b6020820191508190509392505050565b7f4e487b7100000000000000000000000000000000000000000000000000000000600052601260045260246000fd5b6000620006a88262000540565b9150620006b58362000540565b925082620006c857620006c76200066c565b5b828204905092915050565b600081519050919050565b7f4e487b7100000000000000000000000000000000000000000000000000000000600052604160045260246000fd5b60006020601f8301049050919050565b600082821b905092915050565b6000600883026200075c7fffffffffffffffffffffffffffffffffffffffffffffffffffffffffffffffff826200071d565b6200076886836200071d565b95508019841693508086168417925050509392505050565b6000819050919050565b6000620007ab620007a56200079f8462000540565b62000780565b62000540565b9050919050565b6000819050919050565b620007c7836200078a565b620007df620007d682620007b2565b8484546200072a565b825550505050565b600090565b620007f6620007e7565b62000803818484620007bc565b505050565b5b818110156200082b576200081f600082620007ec565b60018101905062000809565b5050565b601f8211156200087a57620008448162000454565b6200084f846200070d565b810160208510156200085f578190505b620008776200086e856200070d565b83018262000808565b50505b505050565b600082821c905092915050565b60006200089f600019846008026200087f565b1980831691505092915050565b6000620008ba83836200088c565b9150826002028217905092915050565b620008d582620006d3565b67ffffffffffffffff811115620008f157620008f0620006de565b5b620008fd825462000414565b6200090a8282856200082f565b600060209050601f8311600181146200094257600084156200092d578287015190505b620009398582620008ac565b865550620009a9565b601f198416620009528662000454565b60005b828110156200097c5784890151825560018201915060208501945060208101905062000955565b868310156200099c578489015162000998601f8916826200088c565b8355505b6001600288020188555050505b505050505050565b610a1280620009c16000396000f3fe608060405234801561001057600080fd5b506004361061004c5760003560e01c80632637cccf14610051578063501895ae1461008157806352de70af146100b15780639ace38c2146100e1575b600080fd5b61006b6004803603810190610066919061058f565b610111565b6040516100789190610649565b60405180910390f35b61009b60048036038101906100969190610664565b61020a565b6040516100a891906106a0565b60405180910390f35b6100cb60048036038101906100c691906106bb565b61022e565b6040516100d891906106a0565b60405180910390f35b6100fb60048036038101906100f69190610664565b61025e565b6040516101089190610783565b60405180910390f35b6000808560405160200161012591906107e1565b60405160208183030381529060405280519060200120905060005b83518110156101fb57600084828151811061015e5761015d6107f8565b5b6020026020010151905060006002886101779190610856565b036101ac57828160405160200161018f9291906108a8565b6040516020818303038152906040528051906020012092506101d8565b80836040516020016101bf9291906108a8565b6040516020818303038152906040528051906020012092505b6002876101e59190610903565b96505080806101f390610934565b915050610140565b50838114915050949350505050565b6000818154811061021a57600080fd5b906000526020600020016000915090505481565b60008160405160200161024191906107e1565b604051602081830303815290604052805190602001209050919050565b6001816004811061026e57600080fd5b016000915090508054610280906109ab565b80601f01602080910402602001604051908101604052809291908181526020018280546102ac906109ab565b80156102f95780601f106102ce576101008083540402835291602001916102f9565b820191906000526020600020905b8154815290600101906020018083116102dc57829003601f168201915b505050505081565b6000604051905090565b600080fd5b600080fd5b600080fd5b600080fd5b6000601f19601f8301169050919050565b7f4e487b7100000000000000000000000000000000000000000000000000000000600052604160045260246000fd5b6103688261031f565b810181811067ffffffffffffffff8211171561038757610386610330565b5b80604052505050565b600061039a610301565b90506103a6828261035f565b919050565b600067ffffffffffffffff8211156103c6576103c5610330565b5b6103cf8261031f565b9050602081019050919050565b82818337600083830152505050565b60006103fe6103f9846103ab565b610390565b90508281526020810184848401111561041a5761041961031a565b5b6104258482856103dc565b509392505050565b600082601f83011261044257610441610315565b5b81356104528482602086016103eb565b91505092915050565b6000819050919050565b61046e8161045b565b811461047957600080fd5b50565b60008135905061048b81610465565b92915050565b6000819050919050565b6104a481610491565b81146104af57600080fd5b50565b6000813590506104c18161049b565b92915050565b600067ffffffffffffffff8211156104e2576104e1610330565b5b602082029050602081019050919050565b600080fd5b600061050b610506846104c7565b610390565b9050808382526020820190506020840283018581111561052e5761052d6104f3565b5b835b81811015610557578061054388826104b2565b845260208401935050602081019050610530565b5050509392505050565b600082601f83011261057657610575610315565b5b81356105868482602086016104f8565b91505092915050565b600080600080608085870312156105a9576105a861030b565b5b600085013567ffffffffffffffff8111156105c7576105c6610310565b5b6105d38782880161042d565b94505060206105e48782880161047c565b93505060406105f5878288016104b2565b925050606085013567ffffffffffffffff81111561061657610615610310565b5b61062287828801610561565b91505092959194509250565b60008115159050919050565b6106438161062e565b82525050565b600060208201905061065e600083018461063a565b92915050565b60006020828403121561067a5761067961030b565b5b60006106888482850161047c565b91505092915050565b61069a81610491565b82525050565b60006020820190506106b56000830184610691565b92915050565b6000602082840312156106d1576106d061030b565b5b600082013567ffffffffffffffff8111156106ef576106ee610310565b5b6106fb8482850161042d565b91505092915050565b600081519050919050565b600082825260208201905092915050565b60005b8381101561073e578082015181840152602081019050610723565b60008484015250505050565b600061075582610704565b61075f818561070f565b935061076f818560208601610720565b6107788161031f565b840191505092915050565b6000602082019050818103600083015261079d818461074a565b905092915050565b600081905092915050565b60006107bb82610704565b6107c581856107a5565b93506107d5818560208601610720565b80840191505092915050565b60006107ed82846107b0565b915081905092915050565b7f4e487b7100000000000000000000000000000000000000000000000000000000600052603260045260246000fd5b7f4e487b7100000000000000000000000000000000000000000000000000000000600052601260045260246000fd5b60006108618261045b565b915061086c8361045b565b92508261087c5761087b610827565b5b828206905092915050565b6000819050919050565b6108a261089d82610491565b610887565b82525050565b60006108b48285610891565b6020820191506108c48284610891565b6020820191508190509392505050565b7f4e487b7100000000000000000000000000000000000000000000000000000000600052601160045260246000fd5b600061090e8261045b565b91506109198361045b565b92508261092957610928610827565b5b828204905092915050565b600061093f8261045b565b91507fffffffffffffffffffffffffffffffffffffffffffffffffffffffffffffffff8203610971576109706108d4565b5b600182019050919050565b7f4e487b7100000000000000000000000000000000000000000000000000000000600052602260045260246000fd5b600060028204905060018216806109c357607f821691505b6020821081036109d6576109d561097c565b5b5091905056fea2646970667358221220111ae8cbfe50934c293ef5aa657500723f0cac976e95affed8094520d0a89bf364736f6c63430008110033",
					"opcodes": "PUSH1 0x80 PUSH1 0x40 MSTORE PUSH1 0x40 MLOAD DUP1 PUSH1 0x80 ADD PUSH1 0x40 MSTORE DUP1 PUSH1 0x40 MLOAD DUP1 PUSH1 0x40 ADD PUSH1 0x40 MSTORE DUP1 PUSH1 0x14 DUP2 MSTORE PUSH1 0x20 ADD PUSH32 0x5458313A20536865726C6F6B202D3E204A6F686E000000000000000000000000 DUP2 MSTORE POP DUP2 MSTORE PUSH1 0x20 ADD PUSH1 0x40 MLOAD DUP1 PUSH1 0x40 ADD PUSH1 0x40 MSTORE DUP1 PUSH1 0x14 DUP2 MSTORE PUSH1 0x20 ADD PUSH32 0x5458323A204A6F686E202D3E20536865726C6F6B000000000000000000000000 DUP2 MSTORE POP DUP2 MSTORE PUSH1 0x20 ADD PUSH1 0x40 MLOAD DUP1 PUSH1 0x40 ADD PUSH1 0x40 MSTORE DUP1 PUSH1 0x11 DUP2 MSTORE PUSH1 0x20 ADD PUSH32 0x5458333A204A6F686E202D3E204D617279000000000000000000000000000000 DUP2 MSTORE POP DUP2 MSTORE PUSH1 0x20 ADD PUSH1 0x40 MLOAD DUP1 PUSH1 0x40 ADD PUSH1 0x40 MSTORE DUP1 PUSH1 0x14 DUP2 MSTORE PUSH1 0x20 ADD PUSH32 0x5458343A204D617279202D3E20536865726C6F6B000000000000000000000000 DUP2 MSTORE POP DUP2 MSTORE POP PUSH1 0x1 SWAP1 PUSH1 0x4 PUSH3 0x10B SWAP3 SWAP2 SWAP1 PUSH3 0x2D6 JUMP JUMPDEST POP CALLVALUE DUP1 ISZERO PUSH3 0x119 JUMPI PUSH1 0x0 DUP1 REVERT JUMPDEST POP PUSH1 0x0 JUMPDEST PUSH1 0x4 DUP2 LT ISZERO PUSH3 0x1A5 JUMPI PUSH1 0x0 PUSH1 0x1 DUP3 PUSH1 0x4 DUP2 LT PUSH3 0x140 JUMPI PUSH3 0x13F PUSH3 0x3B6 JUMP JUMPDEST JUMPDEST ADD PUSH1 0x40 MLOAD PUSH1 0x20 ADD PUSH3 0x153 SWAP2 SWAP1 PUSH3 0x4F8 JUMP JUMPDEST PUSH1 0x40 MLOAD PUSH1 0x20 DUP2 DUP4 SUB SUB DUP2 MSTORE SWAP1 PUSH1 0x40 MSTORE DUP1 MLOAD SWAP1 PUSH1 0x20 ADD KECCAK256 SWAP1 DUP1 PUSH1 0x1 DUP2 SLOAD ADD DUP1 DUP3 SSTORE DUP1 SWAP2 POP POP PUSH1 0x1 SWAP1 SUB SWAP1 PUSH1 0x0 MSTORE PUSH1 0x20 PUSH1 0x0 KECCAK256 ADD PUSH1 0x0 SWAP1 SWAP2 SWAP1 SWAP2 SWAP1 SWAP2 POP SSTORE DUP1 DUP1 PUSH3 0x19C SWAP1 PUSH3 0x54A JUMP JUMPDEST SWAP2 POP POP PUSH3 0x11D JUMP JUMPDEST POP PUSH1 0x0 PUSH1 0x4 SWAP1 POP PUSH1 0x0 JUMPDEST PUSH1 0x0 DUP3 GT ISZERO PUSH3 0x2CE JUMPI PUSH1 0x0 JUMPDEST PUSH1 0x1 DUP4 PUSH3 0x1CB SWAP2 SWAP1 PUSH3 0x597 JUMP JUMPDEST DUP2 LT ISZERO PUSH3 0x2A6 JUMPI PUSH1 0x0 DUP1 DUP3 DUP5 PUSH3 0x1E4 SWAP2 SWAP1 PUSH3 0x5D2 JUMP JUMPDEST DUP2 SLOAD DUP2 LT PUSH3 0x1F8 JUMPI PUSH3 0x1F7 PUSH3 0x3B6 JUMP JUMPDEST JUMPDEST SWAP1 PUSH1 0x0 MSTORE PUSH1 0x20 PUSH1 0x0 KECCAK256 ADD SLOAD PUSH1 0x0 PUSH1 0x1 DUP5 DUP7 PUSH3 0x215 SWAP2 SWAP1 PUSH3 0x5D2 JUMP JUMPDEST PUSH3 0x221 SWAP2 SWAP1 PUSH3 0x5D2 JUMP JUMPDEST DUP2 SLOAD DUP2 LT PUSH3 0x235 JUMPI PUSH3 0x234 PUSH3 0x3B6 JUMP JUMPDEST JUMPDEST SWAP1 PUSH1 0x0 MSTORE PUSH1 0x20 PUSH1 0x0 KECCAK256 ADD SLOAD PUSH1 0x40 MLOAD PUSH1 0x20 ADD PUSH3 0x253 SWAP3 SWAP2 SWAP1 PUSH3 0x63C JUMP JUMPDEST PUSH1 0x40 MLOAD PUSH1 0x20 DUP2 DUP4 SUB SUB DUP2 MSTORE SWAP1 PUSH1 0x40 MSTORE DUP1 MLOAD SWAP1 PUSH1 0x20 ADD KECCAK256 SWAP1 DUP1 PUSH1 0x1 DUP2 SLOAD ADD DUP1 DUP3 SSTORE DUP1 SWAP2 POP POP PUSH1 0x1 SWAP1 SUB SWAP1 PUSH1 0x0 MSTORE PUSH1 0x20 PUSH1 0x0 KECCAK256 ADD PUSH1 0x0 SWAP1 SWAP2 SWAP1 SWAP2 SWAP1 SWAP2 POP SSTORE PUSH1 0x2 DUP2 PUSH3 0x29E SWAP2 SWAP1 PUSH3 0x5D2 JUMP JUMPDEST SWAP1 POP PUSH3 0x1BC JUMP JUMPDEST POP DUP2 DUP2 PUSH3 0x2B5 SWAP2 SWAP1 PUSH3 0x5D2 JUMP JUMPDEST SWAP1 POP PUSH1 0x2 DUP3 PUSH3 0x2C6 SWAP2 SWAP1 PUSH3 0x69B JUMP JUMPDEST SWAP2 POP PUSH3 0x1AF JUMP JUMPDEST POP POP PUSH3 0x9B1 JUMP JUMPDEST DUP3 PUSH1 0x4 DUP2 ADD SWAP3 DUP3 ISZERO PUSH3 0x316 JUMPI SWAP2 PUSH1 0x20 MUL DUP3 ADD JUMPDEST DUP3 DUP2 GT ISZERO PUSH3 0x315 JUMPI DUP3 MLOAD DUP3 SWAP1 DUP2 PUSH3 0x304 SWAP2 SWAP1 PUSH3 0x8CA JUMP JUMPDEST POP SWAP2 PUSH1 0x20 ADD SWAP2 SWAP1 PUSH1 0x1 ADD SWAP1 PUSH3 0x2EA JUMP JUMPDEST JUMPDEST POP SWAP1 POP PUSH3 0x325 SWAP2 SWAP1 PUSH3 0x329 JUMP JUMPDEST POP SWAP1 JUMP JUMPDEST JUMPDEST DUP1 DUP3 GT ISZERO PUSH3 0x34D JUMPI PUSH1 0x0 DUP2 DUP2 PUSH3 0x343 SWAP2 SWAP1 PUSH3 0x351 JUMP JUMPDEST POP PUSH1 0x1 ADD PUSH3 0x32A JUMP JUMPDEST POP SWAP1 JUMP JUMPDEST POP DUP1 SLOAD PUSH3 0x35F SWAP1 PUSH3 0x414 JUMP JUMPDEST PUSH1 0x0 DUP3 SSTORE DUP1 PUSH1 0x1F LT PUSH3 0x373 JUMPI POP PUSH3 0x394 JUMP JUMPDEST PUSH1 0x1F ADD PUSH1 0x20 SWAP1 DIV SWAP1 PUSH1 0x0 MSTORE PUSH1 0x20 PUSH1 0x0 KECCAK256 SWAP1 DUP2 ADD SWAP1 PUSH3 0x393 SWAP2 SWAP1 PUSH3 0x397 JUMP JUMPDEST JUMPDEST POP JUMP JUMPDEST JUMPDEST DUP1 DUP3 GT ISZERO PUSH3 0x3B2 JUMPI PUSH1 0x0 DUP2 PUSH1 0x0 SWAP1 SSTORE POP PUSH1 0x1 ADD PUSH3 0x398 JUMP JUMPDEST POP SWAP1 JUMP JUMPDEST PUSH32 0x4E487B7100000000000000000000000000000000000000000000000000000000 PUSH1 0x0 MSTORE PUSH1 0x32 PUSH1 0x4 MSTORE PUSH1 0x24 PUSH1 0x0 REVERT JUMPDEST PUSH32 0x4E487B7100000000000000000000000000000000000000000000000000000000 PUSH1 0x0 MSTORE PUSH1 0x22 PUSH1 0x4 MSTORE PUSH1 0x24 PUSH1 0x0 REVERT JUMPDEST PUSH1 0x0 PUSH1 0x2 DUP3 DIV SWAP1 POP PUSH1 0x1 DUP3 AND DUP1 PUSH3 0x42D JUMPI PUSH1 0x7F DUP3 AND SWAP2 POP JUMPDEST PUSH1 0x20 DUP3 LT DUP2 SUB PUSH3 0x443 JUMPI PUSH3 0x442 PUSH3 0x3E5 JUMP JUMPDEST JUMPDEST POP SWAP2 SWAP1 POP JUMP JUMPDEST PUSH1 0x0 DUP2 SWAP1 POP SWAP3 SWAP2 POP POP JUMP JUMPDEST PUSH1 0x0 DUP2 SWAP1 POP DUP2 PUSH1 0x0 MSTORE PUSH1 0x20 PUSH1 0x0 KECCAK256 SWAP1 POP SWAP2 SWAP1 POP JUMP JUMPDEST PUSH1 0x0 DUP2 SLOAD PUSH3 0x478 DUP2 PUSH3 0x414 JUMP JUMPDEST PUSH3 0x484 DUP2 DUP7 PUSH3 0x449 JUMP JUMPDEST SWAP5 POP PUSH1 0x1 DUP3 AND PUSH1 0x0 DUP2 EQ PUSH3 0x4A2 JUMPI PUSH1 0x1 DUP2 EQ PUSH3 0x4B8 JUMPI PUSH3 0x4EF JUMP JUMPDEST PUSH1 0xFF NOT DUP4 AND DUP7 MSTORE DUP2 ISZERO ISZERO DUP3 MUL DUP7 ADD SWAP4 POP PUSH3 0x4EF JUMP JUMPDEST PUSH3 0x4C3 DUP6 PUSH3 0x454 JUMP JUMPDEST PUSH1 0x0 JUMPDEST DUP4 DUP2 LT ISZERO PUSH3 0x4E7 JUMPI DUP2 SLOAD DUP2 DUP10 ADD MSTORE PUSH1 0x1 DUP3 ADD SWAP2 POP PUSH1 0x20 DUP2 ADD SWAP1 POP PUSH3 0x4C6 JUMP JUMPDEST DUP4 DUP9 ADD SWAP6 POP POP POP JUMPDEST POP POP POP SWAP3 SWAP2 POP POP JUMP JUMPDEST PUSH1 0x0 PUSH3 0x506 DUP3 DUP5 PUSH3 0x469 JUMP JUMPDEST SWAP2 POP DUP2 SWAP1 POP SWAP3 SWAP2 POP POP JUMP JUMPDEST PUSH32 0x4E487B7100000000000000000000000000000000000000000000000000000000 PUSH1 0x0 MSTORE PUSH1 0x11 PUSH1 0x4 MSTORE PUSH1 0x24 PUSH1 0x0 REVERT JUMPDEST PUSH1 0x0 DUP2 SWAP1 POP SWAP2 SWAP1 POP JUMP JUMPDEST PUSH1 0x0 PUSH3 0x557 DUP3 PUSH3 0x540 JUMP JUMPDEST SWAP2 POP PUSH32 0xFFFFFFFFFFFFFFFFFFFFFFFFFFFFFFFFFFFFFFFFFFFFFFFFFFFFFFFFFFFFFFFF DUP3 SUB PUSH3 0x58C JUMPI PUSH3 0x58B PUSH3 0x511 JUMP JUMPDEST JUMPDEST PUSH1 0x1 DUP3 ADD SWAP1 POP SWAP2 SWAP1 POP JUMP JUMPDEST PUSH1 0x0 PUSH3 0x5A4 DUP3 PUSH3 0x540 JUMP JUMPDEST SWAP2 POP PUSH3 0x5B1 DUP4 PUSH3 0x540 JUMP JUMPDEST SWAP3 POP DUP3 DUP3 SUB SWAP1 POP DUP2 DUP2 GT ISZERO PUSH3 0x5CC JUMPI PUSH3 0x5CB PUSH3 0x511 JUMP JUMPDEST JUMPDEST SWAP3 SWAP2 POP POP JUMP JUMPDEST PUSH1 0x0 PUSH3 0x5DF DUP3 PUSH3 0x540 JUMP JUMPDEST SWAP2 POP PUSH3 0x5EC DUP4 PUSH3 0x540 JUMP JUMPDEST SWAP3 POP DUP3 DUP3 ADD SWAP1 POP DUP1 DUP3 GT ISZERO PUSH3 0x607 JUMPI PUSH3 0x606 PUSH3 0x511 JUMP JUMPDEST JUMPDEST SWAP3 SWAP2 POP POP JUMP JUMPDEST PUSH1 0x0 DUP2 SWAP1 POP SWAP2 SWAP1 POP JUMP JUMPDEST PUSH1 0x0 DUP2 SWAP1 POP SWAP2 SWAP1 POP JUMP JUMPDEST PUSH3 0x636 PUSH3 0x630 DUP3 PUSH3 0x60D JUMP JUMPDEST PUSH3 0x617 JUMP JUMPDEST DUP3 MSTORE POP POP JUMP JUMPDEST PUSH1 0x0 PUSH3 0x64A DUP3 DUP6 PUSH3 0x621 JUMP JUMPDEST PUSH1 0x20 DUP3 ADD SWAP2 POP PUSH3 0x65C DUP3 DUP5 PUSH3 0x621 JUMP JUMPDEST PUSH1 0x20 DUP3 ADD SWAP2 POP DUP2 SWAP1 POP SWAP4 SWAP3 POP POP POP JUMP JUMPDEST PUSH32 0x4E487B7100000000000000000000000000000000000000000000000000000000 PUSH1 0x0 MSTORE PUSH1 0x12 PUSH1 0x4 MSTORE PUSH1 0x24 PUSH1 0x0 REVERT JUMPDEST PUSH1 0x0 PUSH3 0x6A8 DUP3 PUSH3 0x540 JUMP JUMPDEST SWAP2 POP PUSH3 0x6B5 DUP4 PUSH3 0x540 JUMP JUMPDEST SWAP3 POP DUP3 PUSH3 0x6C8 JUMPI PUSH3 0x6C7 PUSH3 0x66C JUMP JUMPDEST JUMPDEST DUP3 DUP3 DIV SWAP1 POP SWAP3 SWAP2 POP POP JUMP JUMPDEST PUSH1 0x0 DUP2 MLOAD SWAP1 POP SWAP2 SWAP1 POP JUMP JUMPDEST PUSH32 0x4E487B7100000000000000000000000000000000000000000000000000000000 PUSH1 0x0 MSTORE PUSH1 0x41 PUSH1 0x4 MSTORE PUSH1 0x24 PUSH1 0x0 REVERT JUMPDEST PUSH1 0x0 PUSH1 0x20 PUSH1 0x1F DUP4 ADD DIV SWAP1 POP SWAP2 SWAP1 POP JUMP JUMPDEST PUSH1 0x0 DUP3 DUP3 SHL SWAP1 POP SWAP3 SWAP2 POP POP JUMP JUMPDEST PUSH1 0x0 PUSH1 0x8 DUP4 MUL PUSH3 0x75C PUSH32 0xFFFFFFFFFFFFFFFFFFFFFFFFFFFFFFFFFFFFFFFFFFFFFFFFFFFFFFFFFFFFFFFF DUP3 PUSH3 0x71D JUMP JUMPDEST PUSH3 0x768 DUP7 DUP4 PUSH3 0x71D JUMP JUMPDEST SWAP6 POP DUP1 NOT DUP5 AND SWAP4 POP DUP1 DUP7 AND DUP5 OR SWAP3 POP POP POP SWAP4 SWAP3 POP POP POP JUMP JUMPDEST PUSH1 0x0 DUP2 SWAP1 POP SWAP2 SWAP1 POP JUMP JUMPDEST PUSH1 0x0 PUSH3 0x7AB PUSH3 0x7A5 PUSH3 0x79F DUP5 PUSH3 0x540 JUMP JUMPDEST PUSH3 0x780 JUMP JUMPDEST PUSH3 0x540 JUMP JUMPDEST SWAP1 POP SWAP2 SWAP1 POP JUMP JUMPDEST PUSH1 0x0 DUP2 SWAP1 POP SWAP2 SWAP1 POP JUMP JUMPDEST PUSH3 0x7C7 DUP4 PUSH3 0x78A JUMP JUMPDEST PUSH3 0x7DF PUSH3 0x7D6 DUP3 PUSH3 0x7B2 JUMP JUMPDEST DUP5 DUP5 SLOAD PUSH3 0x72A JUMP JUMPDEST DUP3 SSTORE POP POP POP POP JUMP JUMPDEST PUSH1 0x0 SWAP1 JUMP JUMPDEST PUSH3 0x7F6 PUSH3 0x7E7 JUMP JUMPDEST PUSH3 0x803 DUP2 DUP5 DUP5 PUSH3 0x7BC JUMP JUMPDEST POP POP POP JUMP JUMPDEST JUMPDEST DUP2 DUP2 LT ISZERO PUSH3 0x82B JUMPI PUSH3 0x81F PUSH1 0x0 DUP3 PUSH3 0x7EC JUMP JUMPDEST PUSH1 0x1 DUP2 ADD SWAP1 POP PUSH3 0x809 JUMP JUMPDEST POP POP JUMP JUMPDEST PUSH1 0x1F DUP3 GT ISZERO PUSH3 0x87A JUMPI PUSH3 0x844 DUP2 PUSH3 0x454 JUMP JUMPDEST PUSH3 0x84F DUP5 PUSH3 0x70D JUMP JUMPDEST DUP2 ADD PUSH1 0x20 DUP6 LT ISZERO PUSH3 0x85F JUMPI DUP2 SWAP1 POP JUMPDEST PUSH3 0x877 PUSH3 0x86E DUP6 PUSH3 0x70D JUMP JUMPDEST DUP4 ADD DUP3 PUSH3 0x808 JUMP JUMPDEST POP POP JUMPDEST POP POP POP JUMP JUMPDEST PUSH1 0x0 DUP3 DUP3 SHR SWAP1 POP SWAP3 SWAP2 POP POP JUMP JUMPDEST PUSH1 0x0 PUSH3 0x89F PUSH1 0x0 NOT DUP5 PUSH1 0x8 MUL PUSH3 0x87F JUMP JUMPDEST NOT DUP1 DUP4 AND SWAP2 POP POP SWAP3 SWAP2 POP POP JUMP JUMPDEST PUSH1 0x0 PUSH3 0x8BA DUP4 DUP4 PUSH3 0x88C JUMP JUMPDEST SWAP2 POP DUP3 PUSH1 0x2 MUL DUP3 OR SWAP1 POP SWAP3 SWAP2 POP POP JUMP JUMPDEST PUSH3 0x8D5 DUP3 PUSH3 0x6D3 JUMP JUMPDEST PUSH8 0xFFFFFFFFFFFFFFFF DUP2 GT ISZERO PUSH3 0x8F1 JUMPI PUSH3 0x8F0 PUSH3 0x6DE JUMP JUMPDEST JUMPDEST PUSH3 0x8FD DUP3 SLOAD PUSH3 0x414 JUMP JUMPDEST PUSH3 0x90A DUP3 DUP3 DUP6 PUSH3 0x82F JUMP JUMPDEST PUSH1 0x0 PUSH1 0x20 SWAP1 POP PUSH1 0x1F DUP4 GT PUSH1 0x1 DUP2 EQ PUSH3 0x942 JUMPI PUSH1 0x0 DUP5 ISZERO PUSH3 0x92D JUMPI DUP3 DUP8 ADD MLOAD SWAP1 POP JUMPDEST PUSH3 0x939 DUP6 DUP3 PUSH3 0x8AC JUMP JUMPDEST DUP7 SSTORE POP PUSH3 0x9A9 JUMP JUMPDEST PUSH1 0x1F NOT DUP5 AND PUSH3 0x952 DUP7 PUSH3 0x454 JUMP JUMPDEST PUSH1 0x0 JUMPDEST DUP3 DUP2 LT ISZERO PUSH3 0x97C JUMPI DUP5 DUP10 ADD MLOAD DUP3 SSTORE PUSH1 0x1 DUP3 ADD SWAP2 POP PUSH1 0x20 DUP6 ADD SWAP5 POP PUSH1 0x20 DUP2 ADD SWAP1 POP PUSH3 0x955 JUMP JUMPDEST DUP7 DUP4 LT ISZERO PUSH3 0x99C JUMPI DUP5 DUP10 ADD MLOAD PUSH3 0x998 PUSH1 0x1F DUP10 AND DUP3 PUSH3 0x88C JUMP JUMPDEST DUP4 SSTORE POP JUMPDEST PUSH1 0x1 PUSH1 0x2 DUP9 MUL ADD DUP9 SSTORE POP POP POP JUMPDEST POP POP POP POP POP POP JUMP JUMPDEST PUSH2 0xA12 DUP1 PUSH3 0x9C1 PUSH1 0x0 CODECOPY PUSH1 0x0 RETURN INVALID PUSH1 0x80 PUSH1 0x40 MSTORE CALLVALUE DUP1 ISZERO PUSH2 0x10 JUMPI PUSH1 0x0 DUP1 REVERT JUMPDEST POP PUSH1 0x4 CALLDATASIZE LT PUSH2 0x4C JUMPI PUSH1 0x0 CALLDATALOAD PUSH1 0xE0 SHR DUP1 PUSH4 0x2637CCCF EQ PUSH2 0x51 JUMPI DUP1 PUSH4 0x501895AE EQ PUSH2 0x81 JUMPI DUP1 PUSH4 0x52DE70AF EQ PUSH2 0xB1 JUMPI DUP1 PUSH4 0x9ACE38C2 EQ PUSH2 0xE1 JUMPI JUMPDEST PUSH1 0x0 DUP1 REVERT JUMPDEST PUSH2 0x6B PUSH1 0x4 DUP1 CALLDATASIZE SUB DUP2 ADD SWAP1 PUSH2 0x66 SWAP2 SWAP1 PUSH2 0x58F JUMP JUMPDEST PUSH2 0x111 JUMP JUMPDEST PUSH1 0x40 MLOAD PUSH2 0x78 SWAP2 SWAP1 PUSH2 0x649 JUMP JUMPDEST PUSH1 0x40 MLOAD DUP1 SWAP2 SUB SWAP1 RETURN JUMPDEST PUSH2 0x9B PUSH1 0x4 DUP1 CALLDATASIZE SUB DUP2 ADD SWAP1 PUSH2 0x96 SWAP2 SWAP1 PUSH2 0x664 JUMP JUMPDEST PUSH2 0x20A JUMP JUMPDEST PUSH1 0x40 MLOAD PUSH2 0xA8 SWAP2 SWAP1 PUSH2 0x6A0 JUMP JUMPDEST PUSH1 0x40 MLOAD DUP1 SWAP2 SUB SWAP1 RETURN JUMPDEST PUSH2 0xCB PUSH1 0x4 DUP1 CALLDATASIZE SUB DUP2 ADD SWAP1 PUSH2 0xC6 SWAP2 SWAP1 PUSH2 0x6BB JUMP JUMPDEST PUSH2 0x22E JUMP JUMPDEST PUSH1 0x40 MLOAD PUSH2 0xD8 SWAP2 SWAP1 PUSH2 0x6A0 JUMP JUMPDEST PUSH1 0x40 MLOAD DUP1 SWAP2 SUB SWAP1 RETURN JUMPDEST PUSH2 0xFB PUSH1 0x4 DUP1 CALLDATASIZE SUB DUP2 ADD SWAP1 PUSH2 0xF6 SWAP2 SWAP1 PUSH2 0x664 JUMP JUMPDEST PUSH2 0x25E JUMP JUMPDEST PUSH1 0x40 MLOAD PUSH2 0x108 SWAP2 SWAP1 PUSH2 0x783 JUMP JUMPDEST PUSH1 0x40 MLOAD DUP1 SWAP2 SUB SWAP1 RETURN JUMPDEST PUSH1 0x0 DUP1 DUP6 PUSH1 0x40 MLOAD PUSH1 0x20 ADD PUSH2 0x125 SWAP2 SWAP1 PUSH2 0x7E1 JUMP JUMPDEST PUSH1 0x40 MLOAD PUSH1 0x20 DUP2 DUP4 SUB SUB DUP2 MSTORE SWAP1 PUSH1 0x40 MSTORE DUP1 MLOAD SWAP1 PUSH1 0x20 ADD KECCAK256 SWAP1 POP PUSH1 0x0 JUMPDEST DUP4 MLOAD DUP2 LT ISZERO PUSH2 0x1FB JUMPI PUSH1 0x0 DUP5 DUP3 DUP2 MLOAD DUP2 LT PUSH2 0x15E JUMPI PUSH2 0x15D PUSH2 0x7F8 JUMP JUMPDEST JUMPDEST PUSH1 0x20 MUL PUSH1 0x20 ADD ADD MLOAD SWAP1 POP PUSH1 0x0 PUSH1 0x2 DUP9 PUSH2 0x177 SWAP2 SWAP1 PUSH2 0x856 JUMP JUMPDEST SUB PUSH2 0x1AC JUMPI DUP3 DUP2 PUSH1 0x40 MLOAD PUSH1 0x20 ADD PUSH2 0x18F SWAP3 SWAP2 SWAP1 PUSH2 0x8A8 JUMP JUMPDEST PUSH1 0x40 MLOAD PUSH1 0x20 DUP2 DUP4 SUB SUB DUP2 MSTORE SWAP1 PUSH1 0x40 MSTORE DUP1 MLOAD SWAP1 PUSH1 0x20 ADD KECCAK256 SWAP3 POP PUSH2 0x1D8 JUMP JUMPDEST DUP1 DUP4 PUSH1 0x40 MLOAD PUSH1 0x20 ADD PUSH2 0x1BF SWAP3 SWAP2 SWAP1 PUSH2 0x8A8 JUMP JUMPDEST PUSH1 0x40 MLOAD PUSH1 0x20 DUP2 DUP4 SUB SUB DUP2 MSTORE SWAP1 PUSH1 0x40 MSTORE DUP1 MLOAD SWAP1 PUSH1 0x20 ADD KECCAK256 SWAP3 POP JUMPDEST PUSH1 0x2 DUP8 PUSH2 0x1E5 SWAP2 SWAP1 PUSH2 0x903 JUMP JUMPDEST SWAP7 POP POP DUP1 DUP1 PUSH2 0x1F3 SWAP1 PUSH2 0x934 JUMP JUMPDEST SWAP2 POP POP PUSH2 0x140 JUMP JUMPDEST POP DUP4 DUP2 EQ SWAP2 POP POP SWAP5 SWAP4 POP POP POP POP JUMP JUMPDEST PUSH1 0x0 DUP2 DUP2 SLOAD DUP2 LT PUSH2 0x21A JUMPI PUSH1 0x0 DUP1 REVERT JUMPDEST SWAP1 PUSH1 0x0 MSTORE PUSH1 0x20 PUSH1 0x0 KECCAK256 ADD PUSH1 0x0 SWAP2 POP SWAP1 POP SLOAD DUP2 JUMP JUMPDEST PUSH1 0x0 DUP2 PUSH1 0x40 MLOAD PUSH1 0x20 ADD PUSH2 0x241 SWAP2 SWAP1 PUSH2 0x7E1 JUMP JUMPDEST PUSH1 0x40 MLOAD PUSH1 0x20 DUP2 DUP4 SUB SUB DUP2 MSTORE SWAP1 PUSH1 0x40 MSTORE DUP1 MLOAD SWAP1 PUSH1 0x20 ADD KECCAK256 SWAP1 POP SWAP2 SWAP1 POP JUMP JUMPDEST PUSH1 0x1 DUP2 PUSH1 0x4 DUP2 LT PUSH2 0x26E JUMPI PUSH1 0x0 DUP1 REVERT JUMPDEST ADD PUSH1 0x0 SWAP2 POP SWAP1 POP DUP1 SLOAD PUSH2 0x280 SWAP1 PUSH2 0x9AB JUMP JUMPDEST DUP1 PUSH1 0x1F ADD PUSH1 0x20 DUP1 SWAP2 DIV MUL PUSH1 0x20 ADD PUSH1 0x40 MLOAD SWAP1 DUP2 ADD PUSH1 0x40 MSTORE DUP1 SWAP3 SWAP2 SWAP1 DUP2 DUP2 MSTORE PUSH1 0x20 ADD DUP3 DUP1 SLOAD PUSH2 0x2AC SWAP1 PUSH2 0x9AB JUMP JUMPDEST DUP1 ISZERO PUSH2 0x2F9 JUMPI DUP1 PUSH1 0x1F LT PUSH2 0x2CE JUMPI PUSH2 0x100 DUP1 DUP4 SLOAD DIV MUL DUP4 MSTORE SWAP2 PUSH1 0x20 ADD SWAP2 PUSH2 0x2F9 JUMP JUMPDEST DUP3 ADD SWAP2 SWAP1 PUSH1 0x0 MSTORE PUSH1 0x20 PUSH1 0x0 KECCAK256 SWAP1 JUMPDEST DUP2 SLOAD DUP2 MSTORE SWAP1 PUSH1 0x1 ADD SWAP1 PUSH1 0x20 ADD DUP1 DUP4 GT PUSH2 0x2DC JUMPI DUP3 SWAP1 SUB PUSH1 0x1F AND DUP3 ADD SWAP2 JUMPDEST POP POP POP POP POP DUP2 JUMP JUMPDEST PUSH1 0x0 PUSH1 0x40 MLOAD SWAP1 POP SWAP1 JUMP JUMPDEST PUSH1 0x0 DUP1 REVERT JUMPDEST PUSH1 0x0 DUP1 REVERT JUMPDEST PUSH1 0x0 DUP1 REVERT JUMPDEST PUSH1 0x0 DUP1 REVERT JUMPDEST PUSH1 0x0 PUSH1 0x1F NOT PUSH1 0x1F DUP4 ADD AND SWAP1 POP SWAP2 SWAP1 POP JUMP JUMPDEST PUSH32 0x4E487B7100000000000000000000000000000000000000000000000000000000 PUSH1 0x0 MSTORE PUSH1 0x41 PUSH1 0x4 MSTORE PUSH1 0x24 PUSH1 0x0 REVERT JUMPDEST PUSH2 0x368 DUP3 PUSH2 0x31F JUMP JUMPDEST DUP2 ADD DUP2 DUP2 LT PUSH8 0xFFFFFFFFFFFFFFFF DUP3 GT OR ISZERO PUSH2 0x387 JUMPI PUSH2 0x386 PUSH2 0x330 JUMP JUMPDEST JUMPDEST DUP1 PUSH1 0x40 MSTORE POP POP POP JUMP JUMPDEST PUSH1 0x0 PUSH2 0x39A PUSH2 0x301 JUMP JUMPDEST SWAP1 POP PUSH2 0x3A6 DUP3 DUP3 PUSH2 0x35F JUMP JUMPDEST SWAP2 SWAP1 POP JUMP JUMPDEST PUSH1 0x0 PUSH8 0xFFFFFFFFFFFFFFFF DUP3 GT ISZERO PUSH2 0x3C6 JUMPI PUSH2 0x3C5 PUSH2 0x330 JUMP JUMPDEST JUMPDEST PUSH2 0x3CF DUP3 PUSH2 0x31F JUMP JUMPDEST SWAP1 POP PUSH1 0x20 DUP2 ADD SWAP1 POP SWAP2 SWAP1 POP JUMP JUMPDEST DUP3 DUP2 DUP4 CALLDATACOPY PUSH1 0x0 DUP4 DUP4 ADD MSTORE POP POP POP JUMP JUMPDEST PUSH1 0x0 PUSH2 0x3FE PUSH2 0x3F9 DUP5 PUSH2 0x3AB JUMP JUMPDEST PUSH2 0x390 JUMP JUMPDEST SWAP1 POP DUP3 DUP2 MSTORE PUSH1 0x20 DUP2 ADD DUP5 DUP5 DUP5 ADD GT ISZERO PUSH2 0x41A JUMPI PUSH2 0x419 PUSH2 0x31A JUMP JUMPDEST JUMPDEST PUSH2 0x425 DUP5 DUP3 DUP6 PUSH2 0x3DC JUMP JUMPDEST POP SWAP4 SWAP3 POP POP POP JUMP JUMPDEST PUSH1 0x0 DUP3 PUSH1 0x1F DUP4 ADD SLT PUSH2 0x442 JUMPI PUSH2 0x441 PUSH2 0x315 JUMP JUMPDEST JUMPDEST DUP2 CALLDATALOAD PUSH2 0x452 DUP5 DUP3 PUSH1 0x20 DUP7 ADD PUSH2 0x3EB JUMP JUMPDEST SWAP2 POP POP SWAP3 SWAP2 POP POP JUMP JUMPDEST PUSH1 0x0 DUP2 SWAP1 POP SWAP2 SWAP1 POP JUMP JUMPDEST PUSH2 0x46E DUP2 PUSH2 0x45B JUMP JUMPDEST DUP2 EQ PUSH2 0x479 JUMPI PUSH1 0x0 DUP1 REVERT JUMPDEST POP JUMP JUMPDEST PUSH1 0x0 DUP2 CALLDATALOAD SWAP1 POP PUSH2 0x48B DUP2 PUSH2 0x465 JUMP JUMPDEST SWAP3 SWAP2 POP POP JUMP JUMPDEST PUSH1 0x0 DUP2 SWAP1 POP SWAP2 SWAP1 POP JUMP JUMPDEST PUSH2 0x4A4 DUP2 PUSH2 0x491 JUMP JUMPDEST DUP2 EQ PUSH2 0x4AF JUMPI PUSH1 0x0 DUP1 REVERT JUMPDEST POP JUMP JUMPDEST PUSH1 0x0 DUP2 CALLDATALOAD SWAP1 POP PUSH2 0x4C1 DUP2 PUSH2 0x49B JUMP JUMPDEST SWAP3 SWAP2 POP POP JUMP JUMPDEST PUSH1 0x0 PUSH8 0xFFFFFFFFFFFFFFFF DUP3 GT ISZERO PUSH2 0x4E2 JUMPI PUSH2 0x4E1 PUSH2 0x330 JUMP JUMPDEST JUMPDEST PUSH1 0x20 DUP3 MUL SWAP1 POP PUSH1 0x20 DUP2 ADD SWAP1 POP SWAP2 SWAP1 POP JUMP JUMPDEST PUSH1 0x0 DUP1 REVERT JUMPDEST PUSH1 0x0 PUSH2 0x50B PUSH2 0x506 DUP5 PUSH2 0x4C7 JUMP JUMPDEST PUSH2 0x390 JUMP JUMPDEST SWAP1 POP DUP1 DUP4 DUP3 MSTORE PUSH1 0x20 DUP3 ADD SWAP1 POP PUSH1 0x20 DUP5 MUL DUP4 ADD DUP6 DUP2 GT ISZERO PUSH2 0x52E JUMPI PUSH2 0x52D PUSH2 0x4F3 JUMP JUMPDEST JUMPDEST DUP4 JUMPDEST DUP2 DUP2 LT ISZERO PUSH2 0x557 JUMPI DUP1 PUSH2 0x543 DUP9 DUP3 PUSH2 0x4B2 JUMP JUMPDEST DUP5 MSTORE PUSH1 0x20 DUP5 ADD SWAP4 POP POP PUSH1 0x20 DUP2 ADD SWAP1 POP PUSH2 0x530 JUMP JUMPDEST POP POP POP SWAP4 SWAP3 POP POP POP JUMP JUMPDEST PUSH1 0x0 DUP3 PUSH1 0x1F DUP4 ADD SLT PUSH2 0x576 JUMPI PUSH2 0x575 PUSH2 0x315 JUMP JUMPDEST JUMPDEST DUP2 CALLDATALOAD PUSH2 0x586 DUP5 DUP3 PUSH1 0x20 DUP7 ADD PUSH2 0x4F8 JUMP JUMPDEST SWAP2 POP POP SWAP3 SWAP2 POP POP JUMP JUMPDEST PUSH1 0x0 DUP1 PUSH1 0x0 DUP1 PUSH1 0x80 DUP6 DUP8 SUB SLT ISZERO PUSH2 0x5A9 JUMPI PUSH2 0x5A8 PUSH2 0x30B JUMP JUMPDEST JUMPDEST PUSH1 0x0 DUP6 ADD CALLDATALOAD PUSH8 0xFFFFFFFFFFFFFFFF DUP2 GT ISZERO PUSH2 0x5C7 JUMPI PUSH2 0x5C6 PUSH2 0x310 JUMP JUMPDEST JUMPDEST PUSH2 0x5D3 DUP8 DUP3 DUP9 ADD PUSH2 0x42D JUMP JUMPDEST SWAP5 POP POP PUSH1 0x20 PUSH2 0x5E4 DUP8 DUP3 DUP9 ADD PUSH2 0x47C JUMP JUMPDEST SWAP4 POP POP PUSH1 0x40 PUSH2 0x5F5 DUP8 DUP3 DUP9 ADD PUSH2 0x4B2 JUMP JUMPDEST SWAP3 POP POP PUSH1 0x60 DUP6 ADD CALLDATALOAD PUSH8 0xFFFFFFFFFFFFFFFF DUP2 GT ISZERO PUSH2 0x616 JUMPI PUSH2 0x615 PUSH2 0x310 JUMP JUMPDEST JUMPDEST PUSH2 0x622 DUP8 DUP3 DUP9 ADD PUSH2 0x561 JUMP JUMPDEST SWAP2 POP POP SWAP3 SWAP6 SWAP2 SWAP5 POP SWAP3 POP JUMP JUMPDEST PUSH1 0x0 DUP2 ISZERO ISZERO SWAP1 POP SWAP2 SWAP1 POP JUMP JUMPDEST PUSH2 0x643 DUP2 PUSH2 0x62E JUMP JUMPDEST DUP3 MSTORE POP POP JUMP JUMPDEST PUSH1 0x0 PUSH1 0x20 DUP3 ADD SWAP1 POP PUSH2 0x65E PUSH1 0x0 DUP4 ADD DUP5 PUSH2 0x63A JUMP JUMPDEST SWAP3 SWAP2 POP POP JUMP JUMPDEST PUSH1 0x0 PUSH1 0x20 DUP3 DUP5 SUB SLT ISZERO PUSH2 0x67A JUMPI PUSH2 0x679 PUSH2 0x30B JUMP JUMPDEST JUMPDEST PUSH1 0x0 PUSH2 0x688 DUP5 DUP3 DUP6 ADD PUSH2 0x47C JUMP JUMPDEST SWAP2 POP POP SWAP3 SWAP2 POP POP JUMP JUMPDEST PUSH2 0x69A DUP2 PUSH2 0x491 JUMP JUMPDEST DUP3 MSTORE POP POP JUMP JUMPDEST PUSH1 0x0 PUSH1 0x20 DUP3 ADD SWAP1 POP PUSH2 0x6B5 PUSH1 0x0 DUP4 ADD DUP5 PUSH2 0x691 JUMP JUMPDEST SWAP3 SWAP2 POP POP JUMP JUMPDEST PUSH1 0x0 PUSH1 0x20 DUP3 DUP5 SUB SLT ISZERO PUSH2 0x6D1 JUMPI PUSH2 0x6D0 PUSH2 0x30B JUMP JUMPDEST JUMPDEST PUSH1 0x0 DUP3 ADD CALLDATALOAD PUSH8 0xFFFFFFFFFFFFFFFF DUP2 GT ISZERO PUSH2 0x6EF JUMPI PUSH2 0x6EE PUSH2 0x310 JUMP JUMPDEST JUMPDEST PUSH2 0x6FB DUP5 DUP3 DUP6 ADD PUSH2 0x42D JUMP JUMPDEST SWAP2 POP POP SWAP3 SWAP2 POP POP JUMP JUMPDEST PUSH1 0x0 DUP2 MLOAD SWAP1 POP SWAP2 SWAP1 POP JUMP JUMPDEST PUSH1 0x0 DUP3 DUP3 MSTORE PUSH1 0x20 DUP3 ADD SWAP1 POP SWAP3 SWAP2 POP POP JUMP JUMPDEST PUSH1 0x0 JUMPDEST DUP4 DUP2 LT ISZERO PUSH2 0x73E JUMPI DUP1 DUP3 ADD MLOAD DUP2 DUP5 ADD MSTORE PUSH1 0x20 DUP2 ADD SWAP1 POP PUSH2 0x723 JUMP JUMPDEST PUSH1 0x0 DUP5 DUP5 ADD MSTORE POP POP POP POP JUMP JUMPDEST PUSH1 0x0 PUSH2 0x755 DUP3 PUSH2 0x704 JUMP JUMPDEST PUSH2 0x75F DUP2 DUP6 PUSH2 0x70F JUMP JUMPDEST SWAP4 POP PUSH2 0x76F DUP2 DUP6 PUSH1 0x20 DUP7 ADD PUSH2 0x720 JUMP JUMPDEST PUSH2 0x778 DUP2 PUSH2 0x31F JUMP JUMPDEST DUP5 ADD SWAP2 POP POP SWAP3 SWAP2 POP POP JUMP JUMPDEST PUSH1 0x0 PUSH1 0x20 DUP3 ADD SWAP1 POP DUP2 DUP2 SUB PUSH1 0x0 DUP4 ADD MSTORE PUSH2 0x79D DUP2 DUP5 PUSH2 0x74A JUMP JUMPDEST SWAP1 POP SWAP3 SWAP2 POP POP JUMP JUMPDEST PUSH1 0x0 DUP2 SWAP1 POP SWAP3 SWAP2 POP POP JUMP JUMPDEST PUSH1 0x0 PUSH2 0x7BB DUP3 PUSH2 0x704 JUMP JUMPDEST PUSH2 0x7C5 DUP2 DUP6 PUSH2 0x7A5 JUMP JUMPDEST SWAP4 POP PUSH2 0x7D5 DUP2 DUP6 PUSH1 0x20 DUP7 ADD PUSH2 0x720 JUMP JUMPDEST DUP1 DUP5 ADD SWAP2 POP POP SWAP3 SWAP2 POP POP JUMP JUMPDEST PUSH1 0x0 PUSH2 0x7ED DUP3 DUP5 PUSH2 0x7B0 JUMP JUMPDEST SWAP2 POP DUP2 SWAP1 POP SWAP3 SWAP2 POP POP JUMP JUMPDEST PUSH32 0x4E487B7100000000000000000000000000000000000000000000000000000000 PUSH1 0x0 MSTORE PUSH1 0x32 PUSH1 0x4 MSTORE PUSH1 0x24 PUSH1 0x0 REVERT JUMPDEST PUSH32 0x4E487B7100000000000000000000000000000000000000000000000000000000 PUSH1 0x0 MSTORE PUSH1 0x12 PUSH1 0x4 MSTORE PUSH1 0x24 PUSH1 0x0 REVERT JUMPDEST PUSH1 0x0 PUSH2 0x861 DUP3 PUSH2 0x45B JUMP JUMPDEST SWAP2 POP PUSH2 0x86C DUP4 PUSH2 0x45B JUMP JUMPDEST SWAP3 POP DUP3 PUSH2 0x87C JUMPI PUSH2 0x87B PUSH2 0x827 JUMP JUMPDEST JUMPDEST DUP3 DUP3 MOD SWAP1 POP SWAP3 SWAP2 POP POP JUMP JUMPDEST PUSH1 0x0 DUP2 SWAP1 POP SWAP2 SWAP1 POP JUMP JUMPDEST PUSH2 0x8A2 PUSH2 0x89D DUP3 PUSH2 0x491 JUMP JUMPDEST PUSH2 0x887 JUMP JUMPDEST DUP3 MSTORE POP POP JUMP JUMPDEST PUSH1 0x0 PUSH2 0x8B4 DUP3 DUP6 PUSH2 0x891 JUMP JUMPDEST PUSH1 0x20 DUP3 ADD SWAP2 POP PUSH2 0x8C4 DUP3 DUP5 PUSH2 0x891 JUMP JUMPDEST PUSH1 0x20 DUP3 ADD SWAP2 POP DUP2 SWAP1 POP SWAP4 SWAP3 POP POP POP JUMP JUMPDEST PUSH32 0x4E487B7100000000000000000000000000000000000000000000000000000000 PUSH1 0x0 MSTORE PUSH1 0x11 PUSH1 0x4 MSTORE PUSH1 0x24 PUSH1 0x0 REVERT JUMPDEST PUSH1 0x0 PUSH2 0x90E DUP3 PUSH2 0x45B JUMP JUMPDEST SWAP2 POP PUSH2 0x919 DUP4 PUSH2 0x45B JUMP JUMPDEST SWAP3 POP DUP3 PUSH2 0x929 JUMPI PUSH2 0x928 PUSH2 0x827 JUMP JUMPDEST JUMPDEST DUP3 DUP3 DIV SWAP1 POP SWAP3 SWAP2 POP POP JUMP JUMPDEST PUSH1 0x0 PUSH2 0x93F DUP3 PUSH2 0x45B JUMP JUMPDEST SWAP2 POP PUSH32 0xFFFFFFFFFFFFFFFFFFFFFFFFFFFFFFFFFFFFFFFFFFFFFFFFFFFFFFFFFFFFFFFF DUP3 SUB PUSH2 0x971 JUMPI PUSH2 0x970 PUSH2 0x8D4 JUMP JUMPDEST JUMPDEST PUSH1 0x1 DUP3 ADD SWAP1 POP SWAP2 SWAP1 POP JUMP JUMPDEST PUSH32 0x4E487B7100000000000000000000000000000000000000000000000000000000 PUSH1 0x0 MSTORE PUSH1 0x22 PUSH1 0x4 MSTORE PUSH1 0x24 PUSH1 0x0 REVERT JUMPDEST PUSH1 0x0 PUSH1 0x2 DUP3 DIV SWAP1 POP PUSH1 0x1 DUP3 AND DUP1 PUSH2 0x9C3 JUMPI PUSH1 0x7F DUP3 AND SWAP2 POP JUMPDEST PUSH1 0x20 DUP3 LT DUP2 SUB PUSH2 0x9D6 JUMPI PUSH2 0x9D5 PUSH2 0x97C JUMP JUMPDEST JUMPDEST POP SWAP2 SWAP1 POP JUMP INVALID LOG2 PUSH5 0x6970667358 0x22 SLT KECCAK256 GT BYTE 0xE8 0xCB INVALID POP SWAP4 0x4C 0x29 RETURNDATACOPY CREATE2 0xAA PUSH6 0x7500723F0CAC SWAP8 PUSH15 0x95AFFED8094520D0A89BF364736F6C PUSH4 0x43000811 STOP CALLER "
				},
				"gasEstimates": {
					"creation": {
						"codeDepositCost": "515600",
						"executionCost": "infinite",
						"totalCost": "infinite"
					},
					"external": {
						"hashes(uint256)": "4882",
						"makeHash(string)": "infinite",
						"transactions(uint256)": "infinite",
						"verify(string,uint256,bytes32,bytes32[])": "infinite"
					}
				},
				"methodIdentifiers": {
					"hashes(uint256)": "501895ae",
					"makeHash(string)": "52de70af",
					"transactions(uint256)": "9ace38c2",
					"verify(string,uint256,bytes32,bytes32[])": "2637cccf"
				}
			},
			"storageLayout": {
				"storage": [
					{
						"astId": 4,
						"contract": "contracts/Tree.sol:Tree",
						"label": "hashes",
						"offset": 0,
						"slot": "0",
						"type": "t_array(t_bytes32)dyn_storage"
					},
					{
						"astId": 13,
						"contract": "contracts/Tree.sol:Tree",
						"label": "transactions",
						"offset": 0,
						"slot": "1",
						"type": "t_array(t_string_storage)4_storage"
					}
				],
				"types": {
					"t_array(t_bytes32)dyn_storage": {
						"base": "t_bytes32",
						"encoding": "dynamic_array",
						"label": "bytes32[]",
						"numberOfBytes": "32"
					},
					"t_array(t_string_storage)4_storage": {
						"base": "t_string_storage",
						"encoding": "inplace",
						"label": "string[4]",
						"numberOfBytes": "128"
					},
					"t_bytes32": {
						"encoding": "inplace",
						"label": "bytes32",
						"numberOfBytes": "32"
					},
					"t_string_storage": {
						"encoding": "bytes",
						"label": "string",
						"numberOfBytes": "32"
					}
				}
			},
			"userdoc": {
				"kind": "user",
				"methods": {},
				"version": 1
			}
		}
	}
}